{
  "contractName": "SolnSquareVerifier",
  "abi": [
    {
      "constant": true,
      "inputs": [
        {
          "name": "interfaceId",
          "type": "bytes4"
        }
      ],
      "name": "supportsInterface",
      "outputs": [
        {
          "name": "",
          "type": "bool"
        }
      ],
      "payable": false,
      "stateMutability": "view",
      "type": "function"
    },
    {
      "constant": true,
      "inputs": [],
      "name": "name",
      "outputs": [
        {
          "name": "",
          "type": "string"
        }
      ],
      "payable": false,
      "stateMutability": "view",
      "type": "function"
    },
    {
      "constant": true,
      "inputs": [
        {
          "name": "tokenId",
          "type": "uint256"
        }
      ],
      "name": "getApproved",
      "outputs": [
        {
          "name": "",
          "type": "address"
        }
      ],
      "payable": false,
      "stateMutability": "view",
      "type": "function"
    },
    {
      "constant": false,
      "inputs": [
        {
          "name": "to",
          "type": "address"
        },
        {
          "name": "tokenId",
          "type": "uint256"
        }
      ],
      "name": "approve",
      "outputs": [],
      "payable": false,
      "stateMutability": "nonpayable",
      "type": "function"
    },
    {
      "constant": false,
      "inputs": [
        {
          "name": "_status",
          "type": "bool"
        }
      ],
      "name": "setPaused",
      "outputs": [],
      "payable": false,
      "stateMutability": "nonpayable",
      "type": "function"
    },
    {
      "constant": true,
      "inputs": [],
      "name": "totalSupply",
      "outputs": [
        {
          "name": "",
          "type": "uint256"
        }
      ],
      "payable": false,
      "stateMutability": "view",
      "type": "function"
    },
    {
      "constant": false,
      "inputs": [
        {
          "name": "from",
          "type": "address"
        },
        {
          "name": "to",
          "type": "address"
        },
        {
          "name": "tokenId",
          "type": "uint256"
        }
      ],
      "name": "transferFrom",
      "outputs": [],
      "payable": false,
      "stateMutability": "nonpayable",
      "type": "function"
    },
    {
      "constant": false,
      "inputs": [
        {
          "name": "_myid",
          "type": "bytes32"
        },
        {
          "name": "_result",
          "type": "string"
        }
      ],
      "name": "__callback",
      "outputs": [],
      "payable": false,
      "stateMutability": "nonpayable",
      "type": "function"
    },
    {
      "constant": true,
      "inputs": [
        {
          "name": "owner",
          "type": "address"
        },
        {
          "name": "index",
          "type": "uint256"
        }
      ],
      "name": "tokenOfOwnerByIndex",
      "outputs": [
        {
          "name": "",
          "type": "uint256"
        }
      ],
      "payable": false,
      "stateMutability": "view",
      "type": "function"
    },
    {
      "constant": false,
      "inputs": [
        {
          "name": "_myid",
          "type": "bytes32"
        },
        {
          "name": "_result",
          "type": "string"
        },
        {
          "name": "_proof",
          "type": "bytes"
        }
      ],
      "name": "__callback",
      "outputs": [],
      "payable": false,
      "stateMutability": "nonpayable",
      "type": "function"
    },
    {
      "constant": false,
      "inputs": [
        {
          "name": "from",
          "type": "address"
        },
        {
          "name": "to",
          "type": "address"
        },
        {
          "name": "tokenId",
          "type": "uint256"
        }
      ],
      "name": "safeTransferFrom",
      "outputs": [],
      "payable": false,
      "stateMutability": "nonpayable",
      "type": "function"
    },
    {
      "constant": true,
      "inputs": [
        {
          "name": "index",
          "type": "uint256"
        }
      ],
      "name": "tokenByIndex",
      "outputs": [
        {
          "name": "",
          "type": "uint256"
        }
      ],
      "payable": false,
      "stateMutability": "view",
      "type": "function"
    },
    {
      "constant": true,
      "inputs": [
        {
          "name": "tokenId",
          "type": "uint256"
        }
      ],
      "name": "ownerOf",
      "outputs": [
        {
          "name": "",
          "type": "address"
        }
      ],
      "payable": false,
      "stateMutability": "view",
      "type": "function"
    },
    {
      "constant": true,
      "inputs": [
        {
          "name": "owner",
          "type": "address"
        }
      ],
      "name": "balanceOf",
      "outputs": [
        {
          "name": "",
          "type": "uint256"
        }
      ],
      "payable": false,
      "stateMutability": "view",
      "type": "function"
    },
    {
      "constant": true,
      "inputs": [],
      "name": "owner",
      "outputs": [
        {
          "name": "",
          "type": "address"
        }
      ],
      "payable": false,
      "stateMutability": "view",
      "type": "function"
    },
    {
      "constant": true,
      "inputs": [],
      "name": "isOwner",
      "outputs": [
        {
          "name": "",
          "type": "bool"
        }
      ],
      "payable": false,
      "stateMutability": "view",
      "type": "function"
    },
    {
      "constant": true,
      "inputs": [],
      "name": "symbol",
      "outputs": [
        {
          "name": "",
          "type": "string"
        }
      ],
      "payable": false,
      "stateMutability": "view",
      "type": "function"
    },
    {
      "constant": false,
      "inputs": [
        {
          "name": "to",
          "type": "address"
        },
        {
          "name": "approved",
          "type": "bool"
        }
      ],
      "name": "setApprovalForAll",
      "outputs": [],
      "payable": false,
      "stateMutability": "nonpayable",
      "type": "function"
    },
    {
      "constant": false,
      "inputs": [
        {
          "name": "from",
          "type": "address"
        },
        {
          "name": "to",
          "type": "address"
        },
        {
          "name": "tokenId",
          "type": "uint256"
        },
        {
          "name": "_data",
          "type": "bytes"
        }
      ],
      "name": "safeTransferFrom",
      "outputs": [],
      "payable": false,
      "stateMutability": "nonpayable",
      "type": "function"
    },
    {
      "constant": true,
      "inputs": [
        {
          "name": "tokenId",
          "type": "uint256"
        }
      ],
      "name": "tokenURI",
      "outputs": [
        {
          "name": "",
          "type": "string"
        }
      ],
      "payable": false,
      "stateMutability": "view",
      "type": "function"
    },
    {
      "constant": false,
      "inputs": [
        {
          "name": "to",
          "type": "address"
        },
        {
          "name": "tokenId",
          "type": "uint256"
        },
        {
          "name": "tokenURI",
          "type": "string"
        }
      ],
      "name": "mint",
      "outputs": [
        {
          "name": "",
          "type": "bool"
        }
      ],
      "payable": false,
      "stateMutability": "nonpayable",
      "type": "function"
    },
    {
      "constant": true,
      "inputs": [
        {
          "name": "owner",
          "type": "address"
        },
        {
          "name": "operator",
          "type": "address"
        }
      ],
      "name": "isApprovedForAll",
      "outputs": [
        {
          "name": "",
          "type": "bool"
        }
      ],
      "payable": false,
      "stateMutability": "view",
      "type": "function"
    },
    {
      "constant": false,
      "inputs": [
        {
          "name": "newOwner",
          "type": "address"
        }
      ],
      "name": "transferOwnership",
      "outputs": [],
      "payable": false,
      "stateMutability": "nonpayable",
      "type": "function"
    },
    {
      "anonymous": false,
      "inputs": [
        {
          "indexed": true,
          "name": "a",
          "type": "uint256[2]"
        },
        {
          "indexed": true,
          "name": "a_p",
          "type": "uint256[2]"
        },
        {
          "indexed": true,
          "name": "b",
          "type": "uint256[2][2]"
        },
        {
          "name": "b_p",
          "type": "uint256[2]"
        },
        {
          "name": "c",
          "type": "uint256[2]"
        },
        {
          "name": "c_p",
          "type": "uint256[2]"
        },
        {
          "name": "h",
          "type": "uint256[2]"
        },
        {
          "name": "k",
          "type": "uint256[2]"
        },
        {
          "name": "input",
          "type": "uint256[2]"
        }
      ],
      "name": "verifyTx",
      "type": "function",
      "constant": false,
      "outputs": [
        {
          "name": "r",
          "type": "bool"
        }
      ],
      "payable": false,
      "stateMutability": "nonpayable"
    },
    {
      "anonymous": false,
      "inputs": [
        {
          "indexed": false,
          "name": "owner",
          "type": "address"
        },
        {
          "indexed": true,
          "name": "approved",
          "type": "address"
        },
        {
          "indexed": true,
          "name": "tokenId",
          "type": "uint256"
        }
      ],
      "name": "SolutionAdded",
      "type": "event"
    },
    {
      "anonymous": false,
      "inputs": [
        {
          "indexed": false,
          "name": "s",
          "type": "string"
        },
        {
          "indexed": true,
          "name": "operator",
          "type": "address"
        },
        {
          "indexed": false,
          "name": "approved",
          "type": "bool"
        }
      ],
      "name": "Verified",
      "type": "event"
    },
    {
      "anonymous": false,
      "inputs": [
        {
          "indexed": true,
          "name": "from",
          "type": "address"
        },
        {
          "indexed": true,
          "name": "to",
          "type": "address"
        },
        {
          "indexed": true,
          "name": "tokenId",
          "type": "uint256"
        }
      ],
      "name": "Transfer",
      "type": "event"
    },
    {
      "anonymous": false,
      "inputs": [
        {
          "indexed": true,
          "name": "owner",
          "type": "address"
        },
        {
          "indexed": true,
          "name": "approved",
          "type": "address"
        },
        {
          "indexed": true,
          "name": "tokenId",
          "type": "uint256"
        }
      ],
      "name": "Approval",
      "type": "event"
    },
    {
      "anonymous": false,
      "inputs": [
        {
          "indexed": true,
          "name": "owner",
          "type": "address"
        },
        {
          "indexed": true,
          "name": "operator",
          "type": "address"
        },
        {
          "indexed": false,
          "name": "approved",
          "type": "bool"
        }
      ],
      "name": "ApprovalForAll",
      "type": "event"
    },
    {
      "anonymous": false,
      "inputs": [
        {
          "indexed": false,
          "name": "_status",
          "type": "bool"
        }
      ],
      "name": "Paused",
      "type": "event"
    },
    {
      "anonymous": false,
      "inputs": [
        {
          "indexed": false,
          "name": "_status",
          "type": "bool"
        }
      ],
      "name": "Unpaused",
      "type": "event"
    },
    {
      "anonymous": false,
      "inputs": [
        {
          "indexed": true,
          "name": "previousOwner",
          "type": "address"
        },
        {
          "indexed": true,
          "name": "newOwner",
          "type": "address"
        }
      ],
      "name": "OwnershipTransferred",
      "type": "event"
    },
    {
      "constant": false,
      "inputs": [
        {
          "name": "_owner",
          "type": "address"
        },
        {
          "name": "_tokenId",
          "type": "uint256"
        }
      ],
      "name": "addSolution",
      "outputs": [],
      "payable": false,
      "stateMutability": "nonpayable",
      "type": "function"
    },
    {
      "constant": false,
      "inputs": [
        {
          "name": "a",
          "type": "uint256[2]"
        },
        {
          "name": "a_p",
          "type": "uint256[2]"
        },
        {
          "name": "b",
          "type": "uint256[2][2]"
        },
        {
          "name": "b_p",
          "type": "uint256[2]"
        },
        {
          "name": "c",
          "type": "uint256[2]"
        },
        {
          "name": "c_p",
          "type": "uint256[2]"
        },
        {
          "name": "h",
          "type": "uint256[2]"
        },
        {
          "name": "k",
          "type": "uint256[2]"
        },
        {
          "name": "input",
          "type": "uint256[2]"
        },
        {
          "name": "owner",
          "type": "address"
        },
        {
          "name": "tokenId",
          "type": "uint256"
        },
        {
          "name": "tokenURI",
          "type": "string"
        }
      ],
      "name": "mintNFT",
      "outputs": [
        {
          "name": "",
          "type": "bool"
        }
      ],
      "payable": false,
      "stateMutability": "nonpayable",
      "type": "function"
    }
  ],
  "bytecode": "0x60806040526040805190810160405280600681526020017f546f6b656e5800000000000000000000000000000000000000000000000000008152506040805190810160405280600381526020017f4d53480000000000000000000000000000000000000000000000000000000000815250606060405190810160405280603f815260200162005321603f9139336000806101000a81548173ffffffffffffffffffffffffffffffffffffffff021916908373ffffffffffffffffffffffffffffffffffffffff1602179055506000809054906101000a900473ffffffffffffffffffffffffffffffffffffffff1673ffffffffffffffffffffffffffffffffffffffff16600073ffffffffffffffffffffffffffffffffffffffff167f8be0079c531659141344cd1fd0a4f28419497f9722a3daafe3b4186f6b6457e060405160405180910390a360008060146101000a81548160ff0219169083151502179055506200019e6301ffc9a77c010000000000000000000000000000000000000000000000000000000002620002a9640100000000026401000000009004565b620001db6380ac58cd7c010000000000000000000000000000000000000000000000000000000002620002a9640100000000026401000000009004565b6200021863780e9d637c010000000000000000000000000000000000000000000000000000000002620002a9640100000000026401000000009004565b82601090805190602001906200023092919062000367565b5081601190805190602001906200024992919062000367565b5080601290805190602001906200026292919062000367565b50620002a0635b5e139f7c010000000000000000000000000000000000000000000000000000000002620002a9640100000000026401000000009004565b50505062000416565b63ffffffff7c010000000000000000000000000000000000000000000000000000000002817bffffffffffffffffffffffffffffffffffffffffffffffffffffffff191614151515620002fb57600080fd5b6001806000837bffffffffffffffffffffffffffffffffffffffffffffffffffffffff19167bffffffffffffffffffffffffffffffffffffffffffffffffffffffff1916815260200190815260200160002060006101000a81548160ff02191690831515021790555050565b828054600181600116156101000203166002900490600052602060002090601f016020900481019282601f10620003aa57805160ff1916838001178555620003db565b82800160010185558215620003db579182015b82811115620003da578251825591602001919060010190620003bd565b5b509050620003ea9190620003ee565b5090565b6200041391905b808211156200040f576000816000905550600101620003f5565b5090565b90565b614efb80620004266000396000f3fe608060405234801561001057600080fd5b50600436106101ab576000357c0100000000000000000000000000000000000000000000000000000000900480634f6ccce7116100fb578063a22cb465116100b4578063d3fc98641161008e578063d3fc986414610ec1578063e985e9c514610fbe578063f2fde38b1461103a578063fe01ff621461107e576101ab565b8063a22cb46514610cc5578063b88d4fde14610d15578063c87b56dd14610e1a576101ab565b80634f6ccce714610ace5780636352211e14610b1057806370a0823114610b7e5780638da5cb5b14610bd65780638f32d59b14610c2057806395d89b4114610c42576101ab565b806318160ddd116101685780632f745c59116101425780632f745c59146108545780633645a170146108b657806338bbfa501461090457806342842e0e14610a60576101ab565b806318160ddd1461070357806323b872dd1461072157806327dc297e1461078f576101ab565b806301ffc9a7146101b057806306fdde0314610215578063081812fc14610298578063095ea7b3146103065780630c2b2eec1461035457806316c38b3c146106d3575b600080fd5b6101fb600480360360208110156101c657600080fd5b8101908080357bffffffffffffffffffffffffffffffffffffffffffffffffffffffff1916906020019092919050505061133c565b604051808215151515815260200191505060405180910390f35b61021d6113a4565b6040518080602001828103825283818151815260200191508051906020019080838360005b8381101561025d578082015181840152602081019050610242565b50505050905090810190601f16801561028a5780820380516001836020036101000a031916815260200191505b509250505060405180910390f35b6102c4600480360360208110156102ae57600080fd5b8101908080359060200190929190505050611446565b604051808273ffffffffffffffffffffffffffffffffffffffff1673ffffffffffffffffffffffffffffffffffffffff16815260200191505060405180910390f35b6103526004803603604081101561031c57600080fd5b81019080803573ffffffffffffffffffffffffffffffffffffffff16906020019092919080359060200190929190505050611500565b005b6106b960048036036102e081101561036b57600080fd5b8101908080604001906002806020026040519081016040528092919082600260200280828437600081840152601f19601f820116905080830192505050505050919291929080604001906002806020026040519081016040528092919082600260200280828437600081840152601f19601f82011690508083019250505050505091929192908060800190600280602002604051908101604052809291906000905b82821015610461578382604002016002806020026040519081016040528092919082600260200280828437600081840152601f19601f8201169050808301925050505050508152602001906001019061040d565b50505050919291929080604001906002806020026040519081016040528092919082600260200280828437600081840152601f19601f820116905080830192505050505050919291929080604001906002806020026040519081016040528092919082600260200280828437600081840152601f19601f820116905080830192505050505050919291929080604001906002806020026040519081016040528092919082600260200280828437600081840152601f19601f820116905080830192505050505050919291929080604001906002806020026040519081016040528092919082600260200280828437600081840152601f19601f820116905080830192505050505050919291929080604001906002806020026040519081016040528092919082600260200280828437600081840152601f19601f820116905080830192505050505050919291929080604001906002806020026040519081016040528092919082600260200280828437600081840152601f19601f8201169050808301925050505050509192919290803573ffffffffffffffffffffffffffffffffffffffff169060200190929190803590602001909291908035906020019064010000000081111561063357600080fd5b82018360208201111561064557600080fd5b8035906020019184600183028401116401000000008311171561066757600080fd5b91908080601f016020809104026020016040519081016040528093929190818152602001838380828437600081840152601f19601f8201169050808301925050505050505091929192905050506116fa565b604051808215151515815260200191505060405180910390f35b610701600480360360208110156106e957600080fd5b810190808035151590602001909291905050506117b0565b005b61070b61182c565b6040518082815260200191505060405180910390f35b61078d6004803603606081101561073757600080fd5b81019080803573ffffffffffffffffffffffffffffffffffffffff169060200190929190803573ffffffffffffffffffffffffffffffffffffffff16906020019092919080359060200190929190505050611839565b005b610852600480360360408110156107a557600080fd5b8101908080359060200190929190803590602001906401000000008111156107cc57600080fd5b8201836020820111156107de57600080fd5b8035906020019184600183028401116401000000008311171561080057600080fd5b91908080601f016020809104026020016040519081016040528093929190818152602001838380828437600081840152601f19601f82011690508083019250505050505050919291929050505061185e565b005b6108a06004803603604081101561086a57600080fd5b81019080803573ffffffffffffffffffffffffffffffffffffffff169060200190929190803590602001909291905050506118a1565b6040518082815260200191505060405180910390f35b610902600480360360408110156108cc57600080fd5b81019080803573ffffffffffffffffffffffffffffffffffffffff16906020019092919080359060200190929190505050611918565b005b610a5e6004803603606081101561091a57600080fd5b81019080803590602001909291908035906020019064010000000081111561094157600080fd5b82018360208201111561095357600080fd5b8035906020019184600183028401116401000000008311171561097557600080fd5b91908080601f016020809104026020016040519081016040528093929190818152602001838380828437600081840152601f19601f820116905080830192505050505050509192919290803590602001906401000000008111156109d857600080fd5b8201836020820111156109ea57600080fd5b80359060200191846001830284011164010000000083111715610a0c57600080fd5b91908080601f016020809104026020016040519081016040528093929190818152602001838380828437600081840152601f19601f820116905080830192505050505050509192919290505050611b1c565b005b610acc60048036036060811015610a7657600080fd5b81019080803573ffffffffffffffffffffffffffffffffffffffff169060200190929190803573ffffffffffffffffffffffffffffffffffffffff16906020019092919080359060200190929190505050611b21565b005b610afa60048036036020811015610ae457600080fd5b8101908080359060200190929190505050611b42565b6040518082815260200191505060405180910390f35b610b3c60048036036020811015610b2657600080fd5b8101908080359060200190929190505050611b7a565b604051808273ffffffffffffffffffffffffffffffffffffffff1673ffffffffffffffffffffffffffffffffffffffff16815260200191505060405180910390f35b610bc060048036036020811015610b9457600080fd5b81019080803573ffffffffffffffffffffffffffffffffffffffff169060200190929190505050611c61565b6040518082815260200191505060405180910390f35b610bde611cb1565b604051808273ffffffffffffffffffffffffffffffffffffffff1673ffffffffffffffffffffffffffffffffffffffff16815260200191505060405180910390f35b610c28611cda565b604051808215151515815260200191505060405180910390f35b610c4a611d31565b6040518080602001828103825283818151815260200191508051906020019080838360005b83811015610c8a578082015181840152602081019050610c6f565b50505050905090810190601f168015610cb75780820380516001836020036101000a031916815260200191505b509250505060405180910390f35b610d1360048036036040811015610cdb57600080fd5b81019080803573ffffffffffffffffffffffffffffffffffffffff169060200190929190803515159060200190929190505050611dd3565b005b610e1860048036036080811015610d2b57600080fd5b81019080803573ffffffffffffffffffffffffffffffffffffffff169060200190929190803573ffffffffffffffffffffffffffffffffffffffff1690602001909291908035906020019092919080359060200190640100000000811115610d9257600080fd5b820183602082011115610da457600080fd5b80359060200191846001830284011164010000000083111715610dc657600080fd5b91908080601f016020809104026020016040519081016040528093929190818152602001838380828437600081840152601f19601f820116905080830192505050505050509192919290505050611f0f565b005b610e4660048036036020811015610e3057600080fd5b8101908080359060200190929190505050611f37565b6040518080602001828103825283818151815260200191508051906020019080838360005b83811015610e86578082015181840152602081019050610e6b565b50505050905090810190601f168015610eb35780820380516001836020036101000a031916815260200191505b509250505060405180910390f35b610fa460048036036060811015610ed757600080fd5b81019080803573ffffffffffffffffffffffffffffffffffffffff1690602001909291908035906020019092919080359060200190640100000000811115610f1e57600080fd5b820183602082011115610f3057600080fd5b80359060200191846001830284011164010000000083111715610f5257600080fd5b91908080601f016020809104026020016040519081016040528093929190818152602001838380828437600081840152601f19601f820116905080830192505050505050509192919290505050612000565b604051808215151515815260200191505060405180910390f35b61102060048036036040811015610fd457600080fd5b81019080803573ffffffffffffffffffffffffffffffffffffffff169060200190929190803573ffffffffffffffffffffffffffffffffffffffff169060200190929190505050612124565b604051808215151515815260200191505060405180910390f35b61107c6004803603602081101561105057600080fd5b81019080803573ffffffffffffffffffffffffffffffffffffffff1690602001909291905050506121b8565b005b611322600480360361028081101561109557600080fd5b8101908080604001906002806020026040519081016040528092919082600260200280828437600081840152601f19601f820116905080830192505050505050919291929080604001906002806020026040519081016040528092919082600260200280828437600081840152601f19601f82011690508083019250505050505091929192908060800190600280602002604051908101604052809291906000905b8282101561118b578382604002016002806020026040519081016040528092919082600260200280828437600081840152601f19601f82011690508083019250505050505081526020019060010190611137565b50505050919291929080604001906002806020026040519081016040528092919082600260200280828437600081840152601f19601f820116905080830192505050505050919291929080604001906002806020026040519081016040528092919082600260200280828437600081840152601f19601f820116905080830192505050505050919291929080604001906002806020026040519081016040528092919082600260200280828437600081840152601f19601f820116905080830192505050505050919291929080604001906002806020026040519081016040528092919082600260200280828437600081840152601f19601f820116905080830192505050505050919291929080604001906002806020026040519081016040528092919082600260200280828437600081840152601f19601f820116905080830192505050505050919291929080604001906002806020026040519081016040528092919082600260200280828437600081840152601f19601f8201169050808301925050505050509192919290505050612223565b604051808215151515815260200191505060405180910390f35b600060016000837bffffffffffffffffffffffffffffffffffffffffffffffffffffffff19167bffffffffffffffffffffffffffffffffffffffffffffffffffffffff1916815260200190815260200160002060009054906101000a900460ff169050919050565b606060108054600181600116156101000203166002900480601f01602080910402602001604051908101604052809291908181526020018280546001816001161561010002031660029004801561143c5780601f106114115761010080835404028352916020019161143c565b820191906000526020600020905b81548152906001019060200180831161141f57829003601f168201915b5050505050905090565b6000611451826125dc565b15156114c5576040517f08c379a00000000000000000000000000000000000000000000000000000000081526004018080602001828103825260148152602001807f7468697320746f6b656e204e4f5420657869737400000000000000000000000081525060200191505060405180910390fd5b6003600083815260200190815260200160002060009054906101000a900473ffffffffffffffffffffffffffffffffffffffff169050919050565b600061150b82611b7a565b90508073ffffffffffffffffffffffffffffffffffffffff168373ffffffffffffffffffffffffffffffffffffffff16141515156115b1576040517f08c379a000000000000000000000000000000000000000000000000000000000815260040180806020018281038252601a8152602001807f5468697320697320746865206f776e6572206f6620746f6b656e00000000000081525060200191505060405180910390fd5b8073ffffffffffffffffffffffffffffffffffffffff163373ffffffffffffffffffffffffffffffffffffffff1614806115f157506115f08133612124565b5b1515611648576040517f08c379a0000000000000000000000000000000000000000000000000000000008152600401808060200182810382526050815260200180614e116050913960600191505060405180910390fd5b826003600084815260200190815260200160002060006101000a81548173ffffffffffffffffffffffffffffffffffffffff021916908373ffffffffffffffffffffffffffffffffffffffff160217905550818373ffffffffffffffffffffffffffffffffffffffff168273ffffffffffffffffffffffffffffffffffffffff167f8c5be1e5ebec7d5bd14f71427d1e84f3dd0314c0f7b2291e5b200ac8c7c3b92560405160405180910390a4505050565b60008061170e8e8e8e8e8e8e8e8e8e612223565b9050801515611785576040517f08c379a000000000000000000000000000000000000000000000000000000000815260040180806020018281038252600f8152602001807f696e636f72726563742070726f6f66000000000000000000000000000000000081525060200191505060405180910390fd5b61178f8585611918565b61179a858585612000565b5060019150509c9b505050505050505050505050565b6117b8611cda565b151561180f576040517f08c379a0000000000000000000000000000000000000000000000000000000008152600401808060200182810382526021815260200180614e836021913960400191505060405180910390fd5b80600060146101000a81548160ff02191690831515021790555050565b6000600980549050905090565b611843338261264e565b151561184e57600080fd5b611859838383612744565b505050565b61189d828260006040519080825280601f01601f1916602001820160405280156118975781602001600182028038833980820191505090505b50611b1c565b5050565b60006118ac83611c61565b821015156118b957600080fd5b600760008473ffffffffffffffffffffffffffffffffffffffff1673ffffffffffffffffffffffffffffffffffffffff1681526020019081526020016000208281548110151561190557fe5b9060005260206000200154905092915050565b611920614a9a565b60408051908101604052808381526020018473ffffffffffffffffffffffffffffffffffffffff168152509050601481908060018154018082558091505090600182039060005260206000209060020201600090919290919091506000820151816000015560208201518160010160006101000a81548173ffffffffffffffffffffffffffffffffffffffff021916908373ffffffffffffffffffffffffffffffffffffffff16021790555050505060004290506000848483604051602001808473ffffffffffffffffffffffffffffffffffffffff1673ffffffffffffffffffffffffffffffffffffffff166c01000000000000000000000000028152601401838152602001828152602001935050505060405160208183030381529060405280519060200120905082601560008381526020019081526020016000206000820151816000015560208201518160010160006101000a81548173ffffffffffffffffffffffffffffffffffffffff021916908373ffffffffffffffffffffffffffffffffffffffff1602179055509050507f209e782baeeecf4956303cb3e836fdf3f7279e6729ebccf2d309c292aedd3aeb85604051808273ffffffffffffffffffffffffffffffffffffffff1673ffffffffffffffffffffffffffffffffffffffff16815260200191505060405180910390a15050505050565b505050565b611b3d8383836020604051908101604052806000815250611f0f565b505050565b6000611b4c61182c565b82101515611b5957600080fd5b600982815481101515611b6857fe5b90600052602060002001549050919050565b6000806002600084815260200190815260200160002060009054906101000a900473ffffffffffffffffffffffffffffffffffffffff169050600073ffffffffffffffffffffffffffffffffffffffff168173ffffffffffffffffffffffffffffffffffffffff1614151515611c58576040517f08c379a000000000000000000000000000000000000000000000000000000000815260040180806020018281038252600f8152602001807f6e6f742076616c6964206f776e6572000000000000000000000000000000000081525060200191505060405180910390fd5b80915050919050565b6000611caa600460008473ffffffffffffffffffffffffffffffffffffffff1673ffffffffffffffffffffffffffffffffffffffff168152602001908152602001600020612768565b9050919050565b60008060009054906101000a900473ffffffffffffffffffffffffffffffffffffffff16905090565b60008060009054906101000a900473ffffffffffffffffffffffffffffffffffffffff1673ffffffffffffffffffffffffffffffffffffffff163373ffffffffffffffffffffffffffffffffffffffff1614905090565b606060118054600181600116156101000203166002900480601f016020809104026020016040519081016040528092919081815260200182805460018160011615610100020316600290048015611dc95780601f10611d9e57610100808354040283529160200191611dc9565b820191906000526020600020905b815481529060010190602001808311611dac57829003601f168201915b5050505050905090565b3373ffffffffffffffffffffffffffffffffffffffff168273ffffffffffffffffffffffffffffffffffffffff1614151515611e0e57600080fd5b80600560003373ffffffffffffffffffffffffffffffffffffffff1673ffffffffffffffffffffffffffffffffffffffff16815260200190815260200160002060008473ffffffffffffffffffffffffffffffffffffffff1673ffffffffffffffffffffffffffffffffffffffff16815260200190815260200160002060006101000a81548160ff0219169083151502179055508173ffffffffffffffffffffffffffffffffffffffff163373ffffffffffffffffffffffffffffffffffffffff167f17307eab39ab6107e8899845ad3d59bd9653f200f220920489ca2b5937696c3183604051808215151515815260200191505060405180910390a35050565b611f1a848484611839565b611f2684848484612776565b1515611f3157600080fd5b50505050565b6060611f42826125dc565b1515611f4d57600080fd5b601360008381526020019081526020016000208054600181600116156101000203166002900480601f016020809104026020016040519081016040528092919081815260200182805460018160011615610100020316600290048015611ff45780601f10611fc957610100808354040283529160200191611ff4565b820191906000526020600020905b815481529060010190602001808311611fd757829003601f168201915b50505050509050919050565b600061200a611cda565b1515612061576040517f08c379a0000000000000000000000000000000000000000000000000000000008152600401808060200182810382526021815260200180614e836021913960400191505060405180910390fd5b600073ffffffffffffffffffffffffffffffffffffffff168473ffffffffffffffffffffffffffffffffffffffff1614151515612106576040517f08c379a00000000000000000000000000000000000000000000000000000000081526004018080602001828103825260188152602001807f6d696e7420746f20746865207a65726f2061646472657373000000000000000081525060200191505060405180910390fd5b6121108484612999565b612119836129ba565b600190509392505050565b6000600560008473ffffffffffffffffffffffffffffffffffffffff1673ffffffffffffffffffffffffffffffffffffffff16815260200190815260200160002060008373ffffffffffffffffffffffffffffffffffffffff1673ffffffffffffffffffffffffffffffffffffffff16815260200190815260200160002060009054906101000a900460ff16905092915050565b6121c0611cda565b1515612217576040517f08c379a0000000000000000000000000000000000000000000000000000000008152600401808060200182810382526021815260200180614e836021913960400191505060405180910390fd5b61222081612af6565b50565b600061222d614aca565b60408051908101604052808c600060028110151561224757fe5b602002015181526020018c600160028110151561226057fe5b6020020151815250816000018190525060408051908101604052808b600060028110151561228a57fe5b602002015181526020018b60016002811015156122a357fe5b60200201518152508160200181905250604080519081016040528060408051908101604052808c60006002811015156122d857fe5b602002015160006002811015156122eb57fe5b602002015181526020018c600060028110151561230457fe5b6020020151600160028110151561231757fe5b6020020151815250815260200160408051908101604052808c600160028110151561233e57fe5b6020020151600060028110151561235157fe5b602002015181526020018c600160028110151561236a57fe5b6020020151600160028110151561237d57fe5b6020020151815250815250816040018190525060408051908101604052808960006002811015156123aa57fe5b602002015181526020018960016002811015156123c357fe5b6020020151815250816060018190525060408051908101604052808860006002811015156123ed57fe5b6020020151815260200188600160028110151561240657fe5b60200201518152508160800181905250604080519081016040528087600060028110151561243057fe5b6020020151815260200187600160028110151561244957fe5b60200201518152508160a00181905250604080519081016040528086600060028110151561247357fe5b6020020151815260200186600160028110151561248c57fe5b60200201518152508160e0018190525060408051908101604052808560006002811015156124b657fe5b602002015181526020018560016002811015156124cf57fe5b60200201518152508160c00181905250606060026040519080825280602002602001820160405280156125115781602001602082028038833980820191505090505b50905060008090505b600281101561255f57848160028110151561253157fe5b6020020151828281518110151561254457fe5b9060200190602002018181525050808060010191505061251a565b50600061256c8284612c3c565b14156125c8577f3f3cfdb26fb5f9f1786ab4f1a1f9cd4c0b5e726cbdfc26e495261731aad44e39604051808060200182810382526022815260200180614e616022913960400191505060405180910390a16001925050506125cf565b6000925050505b9998505050505050505050565b6000806002600084815260200190815260200160002060009054906101000a900473ffffffffffffffffffffffffffffffffffffffff169050600073ffffffffffffffffffffffffffffffffffffffff168173ffffffffffffffffffffffffffffffffffffffff161415915050919050565b6000612659826125dc565b15156126b0576040517f08c379a000000000000000000000000000000000000000000000000000000000815260040180806020018281038252602c815260200180614de5602c913960400191505060405180910390fd5b60006126bb83611b7a565b90508073ffffffffffffffffffffffffffffffffffffffff168473ffffffffffffffffffffffffffffffffffffffff16148061272a57508373ffffffffffffffffffffffffffffffffffffffff1661271284611446565b73ffffffffffffffffffffffffffffffffffffffff16145b8061273b575061273a8185612124565b5b91505092915050565b61274f838383612e7c565b61275983826130f8565b612763828261329c565b505050565b600081600001549050919050565b60006127978473ffffffffffffffffffffffffffffffffffffffff16613363565b15156127a65760019050612991565b60008473ffffffffffffffffffffffffffffffffffffffff1663150b7a02338887876040518563ffffffff167c0100000000000000000000000000000000000000000000000000000000028152600401808573ffffffffffffffffffffffffffffffffffffffff1673ffffffffffffffffffffffffffffffffffffffff1681526020018473ffffffffffffffffffffffffffffffffffffffff1673ffffffffffffffffffffffffffffffffffffffff16815260200183815260200180602001828103825283818151815260200191508051906020019080838360005b8381101561289d578082015181840152602081019050612882565b50505050905090810190601f1680156128ca5780820380516001836020036101000a031916815260200191505b5095505050505050602060405180830381600087803b1580156128ec57600080fd5b505af1158015612900573d6000803e3d6000fd5b505050506040513d602081101561291657600080fd5b8101908080519060200190929190505050905063150b7a027c0100000000000000000000000000000000000000000000000000000000027bffffffffffffffffffffffffffffffffffffffffffffffffffffffff1916817bffffffffffffffffffffffffffffffffffffffffffffffffffffffff1916149150505b949350505050565b6129a38282613376565b6129ad828261329c565b6129b681613592565b5050565b6129c3816125dc565b1515612a1a576040517f08c379a000000000000000000000000000000000000000000000000000000000815260040180806020018281038252602c815260200180614ea4602c913960400191505060405180910390fd5b6060612ac860128054600181600116156101000203166002900480601f016020809104026020016040519081016040528092919081815260200182805460018160011615610100020316600290048015612ab55780601f10612a8a57610100808354040283529160200191612ab5565b820191906000526020600020905b815481529060010190602001808311612a9857829003601f168201915b5050505050612ac3846135de565b613737565b905080601360008481526020019081526020016000209080519060200190612af1929190614b40565b505050565b600073ffffffffffffffffffffffffffffffffffffffff168173ffffffffffffffffffffffffffffffffffffffff1614151515612b7e576040517f08c379a0000000000000000000000000000000000000000000000000000000008152600401808060200182810382526026815260200180614dbf6026913960400191505060405180910390fd5b8073ffffffffffffffffffffffffffffffffffffffff166000809054906101000a900473ffffffffffffffffffffffffffffffffffffffff1673ffffffffffffffffffffffffffffffffffffffff167f8be0079c531659141344cd1fd0a4f28419497f9722a3daafe3b4186f6b6457e060405160405180910390a3806000806101000a81548173ffffffffffffffffffffffffffffffffffffffff021916908373ffffffffffffffffffffffffffffffffffffffff16021790555050565b6000612c46614bc0565b612c4e61377e565b90508060e00151516001855101141515612c6757600080fd5b612c6f614c30565b6040805190810160405280600081526020016000815250905060008090505b8551811015612cee57612cdf82612cda8560e0015160018501815181101515612cb357fe5b906020019060200201518985815181101515612ccb57fe5b90602001906020020151613dbe565b613e5a565b91508080600101915050612c8e565b50612d15818360e001516000815181101515612d0657fe5b90602001906020020151613e5a565b9050612d3e84600001518360000151612d318760200151613f17565b612d39613fb3565b61407d565b1515612d4f57600192505050612e76565b612d7682602001518560400151612d698760600151613f17565b612d71613fb3565b61407d565b1515612d8757600292505050612e76565b612dae84608001518360400151612da18760a00151613f17565b612da9613fb3565b61407d565b1515612dbf57600392505050612e76565b612e0b8460c001518360600151612def612dea85612de58a600001518b60800151613e5a565b613e5a565b613f17565b8560a00151612e018760800151613f17565b8960400151614189565b1515612e1c57600492505050612e76565b612e5e612e2d828660000151613e5a565b8560400151612e3f8760e00151613f17565b8560c00151612e518960800151613f17565b612e59613fb3565b614189565b1515612e6f57600592505050612e76565b6000925050505b92915050565b8273ffffffffffffffffffffffffffffffffffffffff16612e9c82611b7a565b73ffffffffffffffffffffffffffffffffffffffff16141515612f0a576040517f08c379a0000000000000000000000000000000000000000000000000000000008152600401808060200182810382526030815260200180614d8f6030913960400191505060405180910390fd5b600073ffffffffffffffffffffffffffffffffffffffff168273ffffffffffffffffffffffffffffffffffffffff1614151515612faf576040517f08c379a00000000000000000000000000000000000000000000000000000000081526004018080602001828103825260118152602001807f4e6f742076616c6964206164647265737300000000000000000000000000000081525060200191505060405180910390fd5b612fb8816142d1565b612fff600460008573ffffffffffffffffffffffffffffffffffffffff1673ffffffffffffffffffffffffffffffffffffffff168152602001908152602001600020614391565b613046600460008473ffffffffffffffffffffffffffffffffffffffff1673ffffffffffffffffffffffffffffffffffffffff1681526020019081526020016000206143b4565b816002600083815260200190815260200160002060006101000a81548173ffffffffffffffffffffffffffffffffffffffff021916908373ffffffffffffffffffffffffffffffffffffffff160217905550808273ffffffffffffffffffffffffffffffffffffffff168473ffffffffffffffffffffffffffffffffffffffff167fddf252ad1be2c89b69c2b068fc378daa952ba7f163c4a11628f55a4df523b3ef60405160405180910390a4505050565b60006131506001600760008673ffffffffffffffffffffffffffffffffffffffff1673ffffffffffffffffffffffffffffffffffffffff168152602001908152602001600020805490506143ca90919063ffffffff16565b90506000600860008481526020019081526020016000205490508181141515613243576000600760008673ffffffffffffffffffffffffffffffffffffffff1673ffffffffffffffffffffffffffffffffffffffff168152602001908152602001600020838154811015156131c157fe5b9060005260206000200154905080600760008773ffffffffffffffffffffffffffffffffffffffff1673ffffffffffffffffffffffffffffffffffffffff1681526020019081526020016000208381548110151561321b57fe5b9060005260206000200181905550816008600083815260200190815260200160002081905550505b600760008573ffffffffffffffffffffffffffffffffffffffff1673ffffffffffffffffffffffffffffffffffffffff1681526020019081526020016000208054809190600190036132959190614c4a565b5050505050565b600760008373ffffffffffffffffffffffffffffffffffffffff1673ffffffffffffffffffffffffffffffffffffffff168152602001908152602001600020805490506008600083815260200190815260200160002081905550600760008373ffffffffffffffffffffffffffffffffffffffff1673ffffffffffffffffffffffffffffffffffffffff1681526020019081526020016000208190806001815401808255809150509060018203906000526020600020016000909192909190915055505050565b600080823b905060008111915050919050565b600073ffffffffffffffffffffffffffffffffffffffff168273ffffffffffffffffffffffffffffffffffffffff161415151561341b576040517f08c379a00000000000000000000000000000000000000000000000000000000081526004018080602001828103825260208152602001807f4552433732313a206d696e7420746f20746865207a65726f206164647265737381525060200191505060405180910390fd5b613424816125dc565b151515613499576040517f08c379a000000000000000000000000000000000000000000000000000000000815260040180806020018281038252601c8152602001807f676976656e20746f6b656e496420616c7265616479206d696e7465640000000081525060200191505060405180910390fd5b816002600083815260200190815260200160002060006101000a81548173ffffffffffffffffffffffffffffffffffffffff021916908373ffffffffffffffffffffffffffffffffffffffff160217905550613532600460008473ffffffffffffffffffffffffffffffffffffffff1673ffffffffffffffffffffffffffffffffffffffff1681526020019081526020016000206143b4565b808273ffffffffffffffffffffffffffffffffffffffff16600073ffffffffffffffffffffffffffffffffffffffff167fddf252ad1be2c89b69c2b068fc378daa952ba7f163c4a11628f55a4df523b3ef60405160405180910390a45050565b600980549050600a600083815260200190815260200160002081905550600981908060018154018082558091505090600182039060005260206000200160009091929091909150555050565b60606000821415613626576040805190810160405280600181526020017f30000000000000000000000000000000000000000000000000000000000000008152509050613732565b600082905060005b600082141515613654578080600101915050600a8281151561364c57fe5b04915061362e565b6060816040519080825280601f01601f1916602001820160405280156136895781602001600182028038833980820191505090505b50905060006001830390505b60008614151561372a57600a868115156136ab57fe5b066030017f0100000000000000000000000000000000000000000000000000000000000000028282806001900393508151811015156136e657fe5b9060200101907effffffffffffffffffffffffffffffffffffffffffffffffffffffffffffff1916908160001a905350600a8681151561372257fe5b049550613695565b819450505050505b919050565b606061377683836020604051908101604052806000815250602060405190810160405280600081525060206040519081016040528060008152506143ec565b905092915050565b613786614bc0565b604080519081016040528060408051908101604052807f24e3bde81fa3d581d3b1e75d1c69bdf770357d7c682b0bfd10679132e5e64e0e81526020017f19438ae221b888074a673a1219fb783e479c5875420439fc621eb53d286f5af0815250815260200160408051908101604052807f12091928a6b07e7be47fc94e8728659c01e70da14a0c2014630fbe5daa539f1e81526020017f1b42376f0a1522bd2e149d377fb6a3dc7e6a2c131947fc2d319bc45f6f171799815250815250816000018190525060408051908101604052807ec1413bb763379947d788e815dbfaba6a1fccbbc76d4cb65f99a0c4639bf51681526020017f16bb3e6f630503a81213a60431e585fb6f6dc451b4be120a3d13d9ef8db8320d8152508160200181905250604080519081016040528060408051908101604052807f0e60e51c23644a1b18a875b4b558f38c20819e1ca3a2fd4f1fb2ea8bdffe1a7381526020017f0d692805b2eb301c05160d70084247ddab4f5a71991891ff2247b6030723a93e815250815260200160408051908101604052807f036972d3d45bb5e4c343758b7eb1d5ceccfef8e90728b743c3d6a6106718953381526020017f11200df883698c74e93c02296917d7b6cca26bd8630441425d1d696651c9fdfa8152508152508160400181905250604080519081016040528060408051908101604052807f1f2784ef360a2bbb5a6e7947a561d3cb0a77e8275cb53a9e9e75e3a65e1e290281526020017f0894a3b2ccc5ed25911983a52ddf69c46a1fff45838e0931afec4c2c4fd9127b815250815260200160408051908101604052807f2925e3f727fb006de41d41a2b93ea9f3bf12d7a76c0e824f8813ac2755d6346d81526020017f0e7bac654b90df21c3fe2e176166a93283839cbcdc49f0199da374152de23e46815250815250816060018190525060408051908101604052807f1dba15b749e608fb2f3737d7b228eee31f65d1af2c4b372d55ac7ce2576f772281526020017f05adb1d4394aa466bf27acf1534b8b67a188533756b68eb3ac76a057cb217f4c8152508160800181905250604080519081016040528060408051908101604052807f1ad179ecebda5f2a949269d3afd2d2d74983deef263ebb37ff4ff1121ffc0cbe81526020017f1c6c05606b4546986ddb90b8e062198710ea065e96de97def112babb0288cf9e815250815260200160408051908101604052807f1368cb58ad7e47fe613f37f47e47292ecbc2385cdd23f4d29e14b51110c717a681526020017f1e04d7c3a8e9647b6d33f5f6445e47dd71d887efcdc6d3f3cff30a58ede936ef8152508152508160a00181905250604080519081016040528060408051908101604052807f01f82813e048f928665badb808c19483a4e5c0c3c0c0892f30a1443e40cc92a281526020017f2961de296d61d7db5d5f44bef8fdc2b87c2e0e2cb707c36777a12228b19ffc82815250815260200160408051908101604052807f2b16f03a25383eef65f61c55a30700c21f04a27a727677d0fcc6dc7416bc39df81526020017f304881a69789a4d21538c3cd5829fae3ad2c7146373aedfab12b6bfa1821cedd8152508152508160c001819052506003604051908082528060200260200182016040528015613c5357816020015b613c40614c76565b815260200190600190039081613c385790505b508160e0018190525060408051908101604052807f1f20b62909cc1a416529eea9b393258497cf48186280cebf0f3749b9341f9d1c81526020017f0d4127bce3596579c73661b3448724468a9e9aa28a9590ccb45e63ea29fd79f98152508160e001516000815181101515613cc457fe5b9060200190602002018190525060408051908101604052807f28a7cab67ac7062ba5a607e3490b043ae0377378d28ebecae3e1e1dab5378d4681526020017f17b474dff7255a4306b9eacb19dd515099c893768f4bb5663e529da2b874b7228152508160e001516001815181101515613d3957fe5b9060200190602002018190525060408051908101604052807f25ee09c6232190d6ec7bd57981cc09de549e539cfe8dc54b47335ca4213cc23c81526020017f1ce39706f9c7f5e6b0aa4f3597b24314092e4f31cbfed5adc710a6b44876596b8152508160e001516002815181101515613dae57fe5b9060200190602002018190525090565b613dc6614c30565b613dce614c90565b8360000151816000600381101515613de257fe5b6020020181815250508360200151816001600381101515613dff57fe5b60200201818152505082816002600381101515613e1857fe5b6020020181815250506000606083608084600060076107d05a03f190508060008114613e4357613e45565bfe5b50801515613e5257600080fd5b505092915050565b613e62614c30565b613e6a614cb3565b8360000151816000600481101515613e7e57fe5b6020020181815250508360200151816001600481101515613e9b57fe5b6020020181815250508260000151816002600481101515613eb857fe5b6020020181815250508260200151816003600481101515613ed557fe5b602002018181525050600060608360c084600060066107d05a03f190508060008114613f0057613f02565bfe5b50801515613f0f57600080fd5b505092915050565b613f1f614c30565b60007f30644e72e131a029b85045b68181585d97816a916871ca8d3c208c16d87cfd47905060008360000151148015613f5c575060008360200151145b15613f80576040805190810160405280600081526020016000815250915050613fae565b604080519081016040528084600001518152602001828560200151811515613fa457fe5b0683038152509150505b919050565b613fbb614cd6565b604080519081016040528060408051908101604052807f198e9393920d483a7260bfb731fb5d25f1aa493335a9e71297e485b7aef312c281526020017f1800deef121f1e76426a00665e5c4479674322d4f75edadd46debd5cd992f6ed815250815260200160408051908101604052807f090689d0585ff075ec9e99ad690c3395bc4b313370b38ef355acdadcd122975b81526020017f12c85ea5db8c6deb4aab71808dcb408fe3d1e7690c43d37b4ce6cc0166fa7daa815250815250905090565b6000606060026040519080825280602002602001820160405280156140bc57816020015b6140a9614c76565b8152602001906001900390816140a15790505b509050606060026040519080825280602002602001820160405280156140fc57816020015b6140e9614cfd565b8152602001906001900390816140e15790505b5090508682600081518110151561410f57fe5b906020019060200201819052508482600181518110151561412c57fe5b906020019060200201819052508581600081518110151561414957fe5b906020019060200201819052508381600181518110151561416657fe5b9060200190602002018190525061417d8282614807565b92505050949350505050565b6000606060036040519080825280602002602001820160405280156141c857816020015b6141b5614c76565b8152602001906001900390816141ad5790505b5090506060600360405190808252806020026020018201604052801561420857816020015b6141f5614cfd565b8152602001906001900390816141ed5790505b5090508882600081518110151561421b57fe5b906020019060200201819052508682600181518110151561423857fe5b906020019060200201819052508482600281518110151561425557fe5b906020019060200201819052508781600081518110151561427257fe5b906020019060200201819052508581600181518110151561428f57fe5b90602001906020020181905250838160028151811015156142ac57fe5b906020019060200201819052506142c38282614807565b925050509695505050505050565b600073ffffffffffffffffffffffffffffffffffffffff166003600083815260200190815260200160002060009054906101000a900473ffffffffffffffffffffffffffffffffffffffff1673ffffffffffffffffffffffffffffffffffffffff1614151561438e5760006003600083815260200190815260200160002060006101000a81548173ffffffffffffffffffffffffffffffffffffffff021916908373ffffffffffffffffffffffffffffffffffffffff1602179055505b50565b6143a9600182600001546143ca90919063ffffffff16565b816000018190555050565b6001816000016000828254019250508190555050565b60008282111515156143db57600080fd5b600082840390508091505092915050565b6060808690506060869050606086905060608690506060869050606081518351855187518951010101016040519080825280601f01601f1916602001820160405280156144485781602001600182028038833980820191505090505b509050606081905060008090506000809050600090505b885181101561451257888181518110151561447657fe5b9060200101517f010000000000000000000000000000000000000000000000000000000000000090047f01000000000000000000000000000000000000000000000000000000000000000283838060010194508151811015156144d557fe5b9060200101907effffffffffffffffffffffffffffffffffffffffffffffffffffffffffffff1916908160001a905350808060010191505061445f565b600090505b87518110156145ca57878181518110151561452e57fe5b9060200101517f010000000000000000000000000000000000000000000000000000000000000090047f010000000000000000000000000000000000000000000000000000000000000002838380600101945081518110151561458d57fe5b9060200101907effffffffffffffffffffffffffffffffffffffffffffffffffffffffffffff1916908160001a9053508080600101915050614517565b600090505b86518110156146825786818151811015156145e657fe5b9060200101517f010000000000000000000000000000000000000000000000000000000000000090047f010000000000000000000000000000000000000000000000000000000000000002838380600101945081518110151561464557fe5b9060200101907effffffffffffffffffffffffffffffffffffffffffffffffffffffffffffff1916908160001a90535080806001019150506145cf565b600090505b855181101561473a57858181518110151561469e57fe5b9060200101517f010000000000000000000000000000000000000000000000000000000000000090047f01000000000000000000000000000000000000000000000000000000000000000283838060010194508151811015156146fd57fe5b9060200101907effffffffffffffffffffffffffffffffffffffffffffffffffffffffffffff1916908160001a9053508080600101915050614687565b600090505b84518110156147f257848181518110151561475657fe5b9060200101517f010000000000000000000000000000000000000000000000000000000000000090047f01000000000000000000000000000000000000000000000000000000000000000283838060010194508151811015156147b557fe5b9060200101907effffffffffffffffffffffffffffffffffffffffffffffffffffffffffffff1916908160001a905350808060010191505061473f565b82995050505050505050505095945050505050565b60008151835114151561481957600080fd5b60008351905060006006820290506060816040519080825280602002602001820160405280156148585781602001602082028038833980820191505090505b50905060008090505b83811015614a3657868181518110151561487757fe5b9060200190602002015160000151826000600684020181518110151561489957fe5b906020019060200201818152505086818151811015156148b557fe5b906020019060200201516020015182600160068402018151811015156148d757fe5b906020019060200201818152505085818151811015156148f357fe5b9060200190602002015160000151600060028110151561490f57fe5b6020020151826002600684020181518110151561492857fe5b9060200190602002018181525050858181518110151561494457fe5b9060200190602002015160000151600160028110151561496057fe5b6020020151826003600684020181518110151561497957fe5b9060200190602002018181525050858181518110151561499557fe5b906020019060200201516020015160006002811015156149b157fe5b602002015182600460068402018151811015156149ca57fe5b906020019060200201818152505085818151811015156149e657fe5b90602001906020020151602001516001600281101515614a0257fe5b60200201518260056006840201815181101515614a1b57fe5b90602001906020020181815250508080600101915050614861565b50614a3f614d24565b60006020826020860260208601600060086107d05a03f190508060008114614a6657614a68565bfe5b50801515614a7557600080fd5b6000826000600181101515614a8657fe5b602002015114159550505050505092915050565b604080519081016040528060008152602001600073ffffffffffffffffffffffffffffffffffffffff1681525090565b61024060405190810160405280614adf614c76565b8152602001614aec614c76565b8152602001614af9614cfd565b8152602001614b06614c76565b8152602001614b13614c76565b8152602001614b20614c76565b8152602001614b2d614c76565b8152602001614b3a614c76565b81525090565b828054600181600116156101000203166002900490600052602060002090601f016020900481019282601f10614b8157805160ff1916838001178555614baf565b82800160010185558215614baf579182015b82811115614bae578251825591602001919060010190614b93565b5b509050614bbc9190614d47565b5090565b61032060405190810160405280614bd5614cfd565b8152602001614be2614c76565b8152602001614bef614cfd565b8152602001614bfc614cfd565b8152602001614c09614c76565b8152602001614c16614cfd565b8152602001614c23614cfd565b8152602001606081525090565b604080519081016040528060008152602001600081525090565b815481835581811115614c7157818360005260206000209182019101614c709190614d47565b5b505050565b604080519081016040528060008152602001600081525090565b606060405190810160405280600390602082028038833980820191505090505090565b608060405190810160405280600490602082028038833980820191505090505090565b608060405190810160405280614cea614d6c565b8152602001614cf7614d6c565b81525090565b608060405190810160405280614d11614d6c565b8152602001614d1e614d6c565b81525090565b602060405190810160405280600190602082028038833980820191505090505090565b614d6991905b80821115614d65576000816000905550600101614d4d565b5090565b90565b604080519081016040528060029060208202803883398082019150509050509056fe66726f6d2061646472657373206973204e4f5420746865206f776e6572206f662074686520676976656e20746f6b656e4f776e61626c653a206e6577206f776e657220697320746865207a65726f20616464726573734552433732313a206f70657261746f7220717565727920666f72206e6f6e6578697374656e7420746f6b656e73656e646572206973206e65697468657220746865206f776e6572206f662074686520636f6e7472616374206e6f722076616c7565206973417070726f766564466f72416c6c282920697320747275655472616e73616374696f6e207375636365737366756c6c792076657269666965642e746869732061646472657373206973206e6f7420666f7220746865206f776e65724552433732314d657461646174613a2055524920736574206f66206e6f6e6578697374656e7420746f6b656ea165627a7a72305820170ee3384681103adbdfd8028bfe10d75e9f053e8468df877a359795f037a546002968747470733a2f2f73332d75732d776573742d322e616d617a6f6e6177732e636f6d2f756461636974792d626c6f636b636861696e2f63617073746f6e652f",
  "source": "pragma solidity ^0.5.0;\n\n// import 'contracts/SquareVerifier.sol';\n// DONE \nimport \"contracts/ERC721Mintable.sol\";\nimport \"contracts/SquareVerifier.sol\";\n\n// TODO define a contract call to the zokrates generated solidity contract <Verifier> or <renamedVerifier>\n\n\n\n// TODO define another contract named SolnSquareVerifier that inherits from your ERC721Mintable class\n// DONE \ncontract SolnSquareVerifier is CustomERC721Token,SquareVerifier  {\n\n// TODO define a solutions struct that can hold an index & an address\n// DONE \n    struct Solution{\n        uint256 tokenId; \n        address owner;\n    }\n\n// TODO define an array of the above struct\n// DONE \nSolution[] solutionsArray;\n\n// TODO define a mapping to store unique solutions submitted\n// DONE \nmapping (bytes32=>Solution)  uniqueSolutions;\n\n\n// TODO Create an event to emit when a solution is added\n// DONE \nevent SolutionAdded(address owner );\n\n// TODO Create a function to add the solutions to the array and emit the event\nfunction addSolution(address _owner,uint256 _tokenId) public{\n    // to add the solutions to the array\n    // DONE \n    Solution memory solution;\n    solution = Solution({tokenId:_tokenId,owner:_owner});\n    solutionsArray.push(solution);\n \n    //to creat unique key\n    uint256 timecAall;\n    timecAall =now;\n\n    bytes32 key = keccak256(abi.encodePacked(_owner, _tokenId,timecAall));\n\n    uniqueSolutions[key]=solution;\n\n\n    //and emit the event\n    // DONE \n    emit SolutionAdded( _owner );\n}\n\n    //deploy 10 tokens\n\n    // TODO Create a function to mint new NFT only after the solution has been verified\n//  - make sure the solution is unique (has not been used before)\n    function mintNFT(\n            uint[2] memory a,\n            uint[2] memory a_p,\n            uint[2][2] memory b,\n            uint[2] memory b_p,\n            uint[2] memory c,\n            uint[2] memory c_p,\n            uint[2] memory h,\n            uint[2] memory k,\n            uint[2] memory input\n            ,address owner, uint256 tokenId, string memory tokenURI) public returns (bool){\n\n    bool result = super.verifyTx(a, a_p, b, b_p, c, c_p, h, k, input);\n    require(result,\"incorrect proof\");\n\n    addSolution(owner, tokenId);\n\n    super.mint(owner, tokenId, tokenURI);\n        \n//  - make sure you handle metadata as well as tokenSuplly\n\n    return true;\n    }\n\n}\n// contract SquareVerifier {\n//     function verifyTx(\n//             uint[2] memory a,\n//             uint[2] memory a_p,\n//             uint[2][2] memory b,\n//             uint[2] memory b_p,\n//             uint[2] memory c,\n//             uint[2] memory c_p,\n//             uint[2] memory h,\n//             uint[2] memory k,\n//             uint[2] memory input\n//         ) public returns (bool r);\n// }\n \n\n\n\n\n\n\n\n\n\n\n\n\n\n\n\n  \n\n\n\n\n\n\n\n\n\n\n\n\n\n\n\n\n\n\n\n\n\n\n\n\n\n\n",
  "sourcePath": "/Users/msharekh/Development/Blockchain-Capstone/eth-contracts/contracts/SolnSquareVerifier.sol",
  "compiler": {
    "name": "solc",
    "version": "0.5.2+commit.1df8f40c.Emscripten.clang"
  },
  "schemaVersion": "3.0.9",
  "updatedAt": "2019-05-15T12:43:55.690Z",
  "devdoc": {
    "methods": {
      "isApprovedForAll(address,address)": {
        "details": "Tells whether an operator is approved by a given owner",
        "params": {
          "operator": "operator address which you want to query the approval of",
          "owner": "owner address which you want to query the approval of"
        },
        "return": "bool whether the given operator is approved by the given owner"
      },
      "setApprovalForAll(address,bool)": {
        "details": "Sets or unsets the approval of a given operator An operator is allowed to transfer all tokens of the sender on their behalf",
        "params": {
          "approved": "representing the status of the approval to be set",
          "to": "operator address to set the approval"
        }
      },
      "supportsInterface(bytes4)": {
        "details": "implement supportsInterface(bytes4) using a lookup table"
      },
      "tokenByIndex(uint256)": {
        "details": "Gets the token ID at a given index of all the tokens in this contract Reverts if the index is greater or equal to the total number of tokens",
        "params": {
          "index": "uint256 representing the index to be accessed of the tokens list"
        },
        "return": "uint256 token ID at the given index of the tokens list"
      },
      "tokenOfOwnerByIndex(address,uint256)": {
        "details": "Gets the token ID at a given index of the tokens list of the requested owner",
        "params": {
          "index": "uint256 representing the index to be accessed of the requested tokens list",
          "owner": "address owning the tokens list to be accessed"
        },
        "return": "uint256 token ID at the given index of the tokens list owned by the requested address"
      },
      "totalSupply()": {
        "details": "Gets the total amount of tokens stored by the contract",
        "return": "uint256 representing the total amount of tokens"
      }
    }
  },
  "userdoc": {
    "methods": {}
  }
}