{
  "contractName": "SolnSquareVerifier",
  "abi": [
    {
      "constant": true,
      "inputs": [
        {
          "name": "interfaceId",
          "type": "bytes4"
        }
      ],
      "name": "supportsInterface",
      "outputs": [
        {
          "name": "",
          "type": "bool"
        }
      ],
      "payable": false,
      "stateMutability": "view",
      "type": "function"
    },
    {
      "constant": true,
      "inputs": [],
      "name": "name",
      "outputs": [
        {
          "name": "",
          "type": "string"
        }
      ],
      "payable": false,
      "stateMutability": "view",
      "type": "function"
    },
    {
      "constant": true,
      "inputs": [
        {
          "name": "tokenId",
          "type": "uint256"
        }
      ],
      "name": "getApproved",
      "outputs": [
        {
          "name": "",
          "type": "address"
        }
      ],
      "payable": false,
      "stateMutability": "view",
      "type": "function"
    },
    {
      "constant": false,
      "inputs": [
        {
          "name": "to",
          "type": "address"
        },
        {
          "name": "tokenId",
          "type": "uint256"
        }
      ],
      "name": "approve",
      "outputs": [],
      "payable": false,
      "stateMutability": "nonpayable",
      "type": "function"
    },
    {
      "constant": false,
      "inputs": [
        {
          "name": "_status",
          "type": "bool"
        }
      ],
      "name": "setPaused",
      "outputs": [],
      "payable": false,
      "stateMutability": "nonpayable",
      "type": "function"
    },
    {
      "constant": true,
      "inputs": [],
      "name": "totalSupply",
      "outputs": [
        {
          "name": "",
          "type": "uint256"
        }
      ],
      "payable": false,
      "stateMutability": "view",
      "type": "function"
    },
    {
      "constant": false,
      "inputs": [
        {
          "name": "from",
          "type": "address"
        },
        {
          "name": "to",
          "type": "address"
        },
        {
          "name": "tokenId",
          "type": "uint256"
        }
      ],
      "name": "transferFrom",
      "outputs": [],
      "payable": false,
      "stateMutability": "nonpayable",
      "type": "function"
    },
    {
      "constant": false,
      "inputs": [
        {
          "name": "_myid",
          "type": "bytes32"
        },
        {
          "name": "_result",
          "type": "string"
        }
      ],
      "name": "__callback",
      "outputs": [],
      "payable": false,
      "stateMutability": "nonpayable",
      "type": "function"
    },
    {
      "constant": true,
      "inputs": [
        {
          "name": "owner",
          "type": "address"
        },
        {
          "name": "index",
          "type": "uint256"
        }
      ],
      "name": "tokenOfOwnerByIndex",
      "outputs": [
        {
          "name": "",
          "type": "uint256"
        }
      ],
      "payable": false,
      "stateMutability": "view",
      "type": "function"
    },
    {
      "constant": false,
      "inputs": [
        {
          "name": "_myid",
          "type": "bytes32"
        },
        {
          "name": "_result",
          "type": "string"
        },
        {
          "name": "_proof",
          "type": "bytes"
        }
      ],
      "name": "__callback",
      "outputs": [],
      "payable": false,
      "stateMutability": "nonpayable",
      "type": "function"
    },
    {
      "constant": false,
      "inputs": [
        {
          "name": "from",
          "type": "address"
        },
        {
          "name": "to",
          "type": "address"
        },
        {
          "name": "tokenId",
          "type": "uint256"
        }
      ],
      "name": "safeTransferFrom",
      "outputs": [],
      "payable": false,
      "stateMutability": "nonpayable",
      "type": "function"
    },
    {
      "constant": true,
      "inputs": [
        {
          "name": "index",
          "type": "uint256"
        }
      ],
      "name": "tokenByIndex",
      "outputs": [
        {
          "name": "",
          "type": "uint256"
        }
      ],
      "payable": false,
      "stateMutability": "view",
      "type": "function"
    },
    {
      "constant": true,
      "inputs": [
        {
          "name": "tokenId",
          "type": "uint256"
        }
      ],
      "name": "ownerOf",
      "outputs": [
        {
          "name": "",
          "type": "address"
        }
      ],
      "payable": false,
      "stateMutability": "view",
      "type": "function"
    },
    {
      "constant": true,
      "inputs": [
        {
          "name": "owner",
          "type": "address"
        }
      ],
      "name": "balanceOf",
      "outputs": [
        {
          "name": "",
          "type": "uint256"
        }
      ],
      "payable": false,
      "stateMutability": "view",
      "type": "function"
    },
    {
      "constant": true,
      "inputs": [],
      "name": "owner",
      "outputs": [
        {
          "name": "",
          "type": "address"
        }
      ],
      "payable": false,
      "stateMutability": "view",
      "type": "function"
    },
    {
      "constant": true,
      "inputs": [],
      "name": "isOwner",
      "outputs": [
        {
          "name": "",
          "type": "bool"
        }
      ],
      "payable": false,
      "stateMutability": "view",
      "type": "function"
    },
    {
      "constant": true,
      "inputs": [],
      "name": "symbol",
      "outputs": [
        {
          "name": "",
          "type": "string"
        }
      ],
      "payable": false,
      "stateMutability": "view",
      "type": "function"
    },
    {
      "constant": false,
      "inputs": [
        {
          "name": "to",
          "type": "address"
        },
        {
          "name": "approved",
          "type": "bool"
        }
      ],
      "name": "setApprovalForAll",
      "outputs": [],
      "payable": false,
      "stateMutability": "nonpayable",
      "type": "function"
    },
    {
      "constant": false,
      "inputs": [
        {
          "name": "from",
          "type": "address"
        },
        {
          "name": "to",
          "type": "address"
        },
        {
          "name": "tokenId",
          "type": "uint256"
        },
        {
          "name": "_data",
          "type": "bytes"
        }
      ],
      "name": "safeTransferFrom",
      "outputs": [],
      "payable": false,
      "stateMutability": "nonpayable",
      "type": "function"
    },
    {
      "constant": true,
      "inputs": [
        {
          "name": "tokenId",
          "type": "uint256"
        }
      ],
      "name": "tokenURI",
      "outputs": [
        {
          "name": "",
          "type": "string"
        }
      ],
      "payable": false,
      "stateMutability": "view",
      "type": "function"
    },
    {
      "constant": false,
      "inputs": [
        {
          "name": "to",
          "type": "address"
        },
        {
          "name": "tokenId",
          "type": "uint256"
        },
        {
          "name": "tokenURI",
          "type": "string"
        }
      ],
      "name": "mint",
      "outputs": [
        {
          "name": "",
          "type": "bool"
        }
      ],
      "payable": false,
      "stateMutability": "nonpayable",
      "type": "function"
    },
    {
      "constant": true,
      "inputs": [
        {
          "name": "owner",
          "type": "address"
        },
        {
          "name": "operator",
          "type": "address"
        }
      ],
      "name": "isApprovedForAll",
      "outputs": [
        {
          "name": "",
          "type": "bool"
        }
      ],
      "payable": false,
      "stateMutability": "view",
      "type": "function"
    },
    {
      "constant": false,
      "inputs": [
        {
          "name": "newOwner",
          "type": "address"
        }
      ],
      "name": "transferOwnership",
      "outputs": [],
      "payable": false,
      "stateMutability": "nonpayable",
      "type": "function"
    },
    {
      "constant": false,
      "inputs": [
        {
          "name": "a",
          "type": "uint256[2]"
        },
        {
          "name": "a_p",
          "type": "uint256[2]"
        },
        {
          "name": "b",
          "type": "uint256[2][2]"
        },
        {
          "name": "b_p",
          "type": "uint256[2]"
        },
        {
          "name": "c",
          "type": "uint256[2]"
        },
        {
          "name": "c_p",
          "type": "uint256[2]"
        },
        {
          "name": "h",
          "type": "uint256[2]"
        },
        {
          "name": "k",
          "type": "uint256[2]"
        },
        {
          "name": "input",
          "type": "uint256[2]"
        }
      ],
      "name": "verifyTx",
      "outputs": [
        {
          "name": "r",
          "type": "bool"
        }
      ],
      "payable": false,
      "stateMutability": "nonpayable",
      "type": "function"
    },
    {
      "inputs": [
        {
          "name": "verifierAddress",
          "type": "address"
        }
      ],
      "payable": false,
      "stateMutability": "nonpayable",
      "type": "constructor"
    },
    {
      "anonymous": false,
      "inputs": [
        {
          "indexed": false,
          "name": "s",
          "type": "string"
        }
      ],
      "name": "Verified",
      "type": "event"
    },
    {
      "anonymous": false,
      "inputs": [
        {
          "indexed": true,
          "name": "from",
          "type": "address"
        },
        {
          "indexed": true,
          "name": "to",
          "type": "address"
        },
        {
          "indexed": true,
          "name": "tokenId",
          "type": "uint256"
        }
      ],
      "name": "Transfer",
      "type": "event"
    },
    {
      "anonymous": false,
      "inputs": [
        {
          "indexed": true,
          "name": "owner",
          "type": "address"
        },
        {
          "indexed": true,
          "name": "approved",
          "type": "address"
        },
        {
          "indexed": true,
          "name": "tokenId",
          "type": "uint256"
        }
      ],
      "name": "Approval",
      "type": "event"
    },
    {
      "anonymous": false,
      "inputs": [
        {
          "indexed": true,
          "name": "owner",
          "type": "address"
        },
        {
          "indexed": true,
          "name": "operator",
          "type": "address"
        },
        {
          "indexed": false,
          "name": "approved",
          "type": "bool"
        }
      ],
      "name": "ApprovalForAll",
      "type": "event"
    },
    {
      "anonymous": false,
      "inputs": [
        {
          "indexed": false,
          "name": "_status",
          "type": "bool"
        }
      ],
      "name": "Paused",
      "type": "event"
    },
    {
      "anonymous": false,
      "inputs": [
        {
          "indexed": false,
          "name": "_status",
          "type": "bool"
        }
      ],
      "name": "Unpaused",
      "type": "event"
    },
    {
      "anonymous": false,
      "inputs": [
        {
          "indexed": true,
          "name": "previousOwner",
          "type": "address"
        },
        {
          "indexed": true,
          "name": "newOwner",
          "type": "address"
        }
      ],
      "name": "OwnershipTransferred",
      "type": "event"
    },
    {
      "constant": false,
      "inputs": [
        {
          "name": "_owner",
          "type": "address"
        },
        {
          "name": "_tokenId",
          "type": "uint256"
        }
      ],
      "name": "addSolution",
      "outputs": [],
      "payable": false,
      "stateMutability": "nonpayable",
      "type": "function"
    },
    {
      "constant": false,
      "inputs": [
        {
          "name": "a",
          "type": "uint256[2]"
        },
        {
          "name": "a_p",
          "type": "uint256[2]"
        },
        {
          "name": "b",
          "type": "uint256[2][2]"
        },
        {
          "name": "b_p",
          "type": "uint256[2]"
        },
        {
          "name": "c",
          "type": "uint256[2]"
        },
        {
          "name": "c_p",
          "type": "uint256[2]"
        },
        {
          "name": "h",
          "type": "uint256[2]"
        },
        {
          "name": "k",
          "type": "uint256[2]"
        },
        {
          "name": "input",
          "type": "uint256[2]"
        },
        {
          "name": "owner",
          "type": "address"
        },
        {
          "name": "tokenId",
          "type": "uint256"
        },
        {
          "name": "tokenURI",
          "type": "string"
        }
      ],
      "name": "mintNFT",
      "outputs": [
        {
          "name": "",
          "type": "bool"
        }
      ],
      "payable": false,
      "stateMutability": "nonpayable",
      "type": "function"
    }
  ],
  "bytecode": "0x60806040523480156200001157600080fd5b5060405160208062005290833981018060405260208110156200003357600080fd5b81019080805190602001909291905050506040805190810160405280600681526020017f546f6b656e5800000000000000000000000000000000000000000000000000008152506040805190810160405280600381526020017f4d53480000000000000000000000000000000000000000000000000000000000815250606060405190810160405280603f815260200162005251603f9139336000806101000a81548173ffffffffffffffffffffffffffffffffffffffff021916908373ffffffffffffffffffffffffffffffffffffffff1602179055506000809054906101000a900473ffffffffffffffffffffffffffffffffffffffff1673ffffffffffffffffffffffffffffffffffffffff16600073ffffffffffffffffffffffffffffffffffffffff167f8be0079c531659141344cd1fd0a4f28419497f9722a3daafe3b4186f6b6457e060405160405180910390a360008060146101000a81548160ff021916908315150217905550620001de6301ffc9a77c010000000000000000000000000000000000000000000000000000000002620002ea640100000000026401000000009004565b6200021b6380ac58cd7c010000000000000000000000000000000000000000000000000000000002620002ea640100000000026401000000009004565b6200025863780e9d637c010000000000000000000000000000000000000000000000000000000002620002ea640100000000026401000000009004565b826010908051906020019062000270929190620003a8565b50816011908051906020019062000289929190620003a8565b508060129080519060200190620002a2929190620003a8565b50620002e0635b5e139f7c010000000000000000000000000000000000000000000000000000000002620002ea640100000000026401000000009004565b5050505062000457565b63ffffffff7c010000000000000000000000000000000000000000000000000000000002817bffffffffffffffffffffffffffffffffffffffffffffffffffffffff1916141515156200033c57600080fd5b6001806000837bffffffffffffffffffffffffffffffffffffffffffffffffffffffff19167bffffffffffffffffffffffffffffffffffffffffffffffffffffffff1916815260200190815260200160002060006101000a81548160ff02191690831515021790555050565b828054600181600116156101000203166002900490600052602060002090601f016020900481019282601f10620003eb57805160ff19168380011785556200041c565b828001600101855582156200041c579182015b828111156200041b578251825591602001919060010190620003fe565b5b5090506200042b91906200042f565b5090565b6200045491905b808211156200045057600081600090555060010162000436565b5090565b90565b614dea80620004676000396000f3fe608060405234801561001057600080fd5b50600436106101ab576000357c0100000000000000000000000000000000000000000000000000000000900480634f6ccce7116100fb578063a22cb465116100b4578063d3fc98641161008e578063d3fc986414610ec1578063e985e9c514610fbe578063f2fde38b1461103a578063fe01ff621461107e576101ab565b8063a22cb46514610cc5578063b88d4fde14610d15578063c87b56dd14610e1a576101ab565b80634f6ccce714610ace5780636352211e14610b1057806370a0823114610b7e5780638da5cb5b14610bd65780638f32d59b14610c2057806395d89b4114610c42576101ab565b806318160ddd116101685780632f745c59116101425780632f745c59146108545780633645a170146108b657806338bbfa501461090457806342842e0e14610a60576101ab565b806318160ddd1461070357806323b872dd1461072157806327dc297e1461078f576101ab565b806301ffc9a7146101b057806306fdde0314610215578063081812fc14610298578063095ea7b3146103065780630c2b2eec1461035457806316c38b3c146106d3575b600080fd5b6101fb600480360360208110156101c657600080fd5b8101908080357bffffffffffffffffffffffffffffffffffffffffffffffffffffffff1916906020019092919050505061133c565b604051808215151515815260200191505060405180910390f35b61021d6113a4565b6040518080602001828103825283818151815260200191508051906020019080838360005b8381101561025d578082015181840152602081019050610242565b50505050905090810190601f16801561028a5780820380516001836020036101000a031916815260200191505b509250505060405180910390f35b6102c4600480360360208110156102ae57600080fd5b8101908080359060200190929190505050611446565b604051808273ffffffffffffffffffffffffffffffffffffffff1673ffffffffffffffffffffffffffffffffffffffff16815260200191505060405180910390f35b6103526004803603604081101561031c57600080fd5b81019080803573ffffffffffffffffffffffffffffffffffffffff16906020019092919080359060200190929190505050611500565b005b6106b960048036036102e081101561036b57600080fd5b8101908080604001906002806020026040519081016040528092919082600260200280828437600081840152601f19601f820116905080830192505050505050919291929080604001906002806020026040519081016040528092919082600260200280828437600081840152601f19601f82011690508083019250505050505091929192908060800190600280602002604051908101604052809291906000905b82821015610461578382604002016002806020026040519081016040528092919082600260200280828437600081840152601f19601f8201169050808301925050505050508152602001906001019061040d565b50505050919291929080604001906002806020026040519081016040528092919082600260200280828437600081840152601f19601f820116905080830192505050505050919291929080604001906002806020026040519081016040528092919082600260200280828437600081840152601f19601f820116905080830192505050505050919291929080604001906002806020026040519081016040528092919082600260200280828437600081840152601f19601f820116905080830192505050505050919291929080604001906002806020026040519081016040528092919082600260200280828437600081840152601f19601f820116905080830192505050505050919291929080604001906002806020026040519081016040528092919082600260200280828437600081840152601f19601f820116905080830192505050505050919291929080604001906002806020026040519081016040528092919082600260200280828437600081840152601f19601f8201169050808301925050505050509192919290803573ffffffffffffffffffffffffffffffffffffffff169060200190929190803590602001909291908035906020019064010000000081111561063357600080fd5b82018360208201111561064557600080fd5b8035906020019184600183028401116401000000008311171561066757600080fd5b91908080601f016020809104026020016040519081016040528093929190818152602001838380828437600081840152601f19601f8201169050808301925050505050505091929192905050506116fa565b604051808215151515815260200191505060405180910390f35b610701600480360360208110156106e957600080fd5b81019080803515159060200190929190505050611710565b005b61070b61178c565b6040518082815260200191505060405180910390f35b61078d6004803603606081101561073757600080fd5b81019080803573ffffffffffffffffffffffffffffffffffffffff169060200190929190803573ffffffffffffffffffffffffffffffffffffffff16906020019092919080359060200190929190505050611799565b005b610852600480360360408110156107a557600080fd5b8101908080359060200190929190803590602001906401000000008111156107cc57600080fd5b8201836020820111156107de57600080fd5b8035906020019184600183028401116401000000008311171561080057600080fd5b91908080601f016020809104026020016040519081016040528093929190818152602001838380828437600081840152601f19601f8201169050808301925050505050505091929192905050506117be565b005b6108a06004803603604081101561086a57600080fd5b81019080803573ffffffffffffffffffffffffffffffffffffffff16906020019092919080359060200190929190505050611801565b6040518082815260200191505060405180910390f35b610902600480360360408110156108cc57600080fd5b81019080803573ffffffffffffffffffffffffffffffffffffffff16906020019092919080359060200190929190505050611878565b005b610a5e6004803603606081101561091a57600080fd5b81019080803590602001909291908035906020019064010000000081111561094157600080fd5b82018360208201111561095357600080fd5b8035906020019184600183028401116401000000008311171561097557600080fd5b91908080601f016020809104026020016040519081016040528093929190818152602001838380828437600081840152601f19601f820116905080830192505050505050509192919290803590602001906401000000008111156109d857600080fd5b8201836020820111156109ea57600080fd5b80359060200191846001830284011164010000000083111715610a0c57600080fd5b91908080601f016020809104026020016040519081016040528093929190818152602001838380828437600081840152601f19601f820116905080830192505050505050509192919290505050611a0b565b005b610acc60048036036060811015610a7657600080fd5b81019080803573ffffffffffffffffffffffffffffffffffffffff169060200190929190803573ffffffffffffffffffffffffffffffffffffffff16906020019092919080359060200190929190505050611a10565b005b610afa60048036036020811015610ae457600080fd5b8101908080359060200190929190505050611a31565b6040518082815260200191505060405180910390f35b610b3c60048036036020811015610b2657600080fd5b8101908080359060200190929190505050611a69565b604051808273ffffffffffffffffffffffffffffffffffffffff1673ffffffffffffffffffffffffffffffffffffffff16815260200191505060405180910390f35b610bc060048036036020811015610b9457600080fd5b81019080803573ffffffffffffffffffffffffffffffffffffffff169060200190929190505050611b50565b6040518082815260200191505060405180910390f35b610bde611ba0565b604051808273ffffffffffffffffffffffffffffffffffffffff1673ffffffffffffffffffffffffffffffffffffffff16815260200191505060405180910390f35b610c28611bc9565b604051808215151515815260200191505060405180910390f35b610c4a611c20565b6040518080602001828103825283818151815260200191508051906020019080838360005b83811015610c8a578082015181840152602081019050610c6f565b50505050905090810190601f168015610cb75780820380516001836020036101000a031916815260200191505b509250505060405180910390f35b610d1360048036036040811015610cdb57600080fd5b81019080803573ffffffffffffffffffffffffffffffffffffffff169060200190929190803515159060200190929190505050611cc2565b005b610e1860048036036080811015610d2b57600080fd5b81019080803573ffffffffffffffffffffffffffffffffffffffff169060200190929190803573ffffffffffffffffffffffffffffffffffffffff1690602001909291908035906020019092919080359060200190640100000000811115610d9257600080fd5b820183602082011115610da457600080fd5b80359060200191846001830284011164010000000083111715610dc657600080fd5b91908080601f016020809104026020016040519081016040528093929190818152602001838380828437600081840152601f19601f820116905080830192505050505050509192919290505050611dfe565b005b610e4660048036036020811015610e3057600080fd5b8101908080359060200190929190505050611e26565b6040518080602001828103825283818151815260200191508051906020019080838360005b83811015610e86578082015181840152602081019050610e6b565b50505050905090810190601f168015610eb35780820380516001836020036101000a031916815260200191505b509250505060405180910390f35b610fa460048036036060811015610ed757600080fd5b81019080803573ffffffffffffffffffffffffffffffffffffffff1690602001909291908035906020019092919080359060200190640100000000811115610f1e57600080fd5b820183602082011115610f3057600080fd5b80359060200191846001830284011164010000000083111715610f5257600080fd5b91908080601f016020809104026020016040519081016040528093929190818152602001838380828437600081840152601f19601f820116905080830192505050505050509192919290505050611eef565b604051808215151515815260200191505060405180910390f35b61102060048036036040811015610fd457600080fd5b81019080803573ffffffffffffffffffffffffffffffffffffffff169060200190929190803573ffffffffffffffffffffffffffffffffffffffff169060200190929190505050612013565b604051808215151515815260200191505060405180910390f35b61107c6004803603602081101561105057600080fd5b81019080803573ffffffffffffffffffffffffffffffffffffffff1690602001909291905050506120a7565b005b611322600480360361028081101561109557600080fd5b8101908080604001906002806020026040519081016040528092919082600260200280828437600081840152601f19601f820116905080830192505050505050919291929080604001906002806020026040519081016040528092919082600260200280828437600081840152601f19601f82011690508083019250505050505091929192908060800190600280602002604051908101604052809291906000905b8282101561118b578382604002016002806020026040519081016040528092919082600260200280828437600081840152601f19601f82011690508083019250505050505081526020019060010190611137565b50505050919291929080604001906002806020026040519081016040528092919082600260200280828437600081840152601f19601f820116905080830192505050505050919291929080604001906002806020026040519081016040528092919082600260200280828437600081840152601f19601f820116905080830192505050505050919291929080604001906002806020026040519081016040528092919082600260200280828437600081840152601f19601f820116905080830192505050505050919291929080604001906002806020026040519081016040528092919082600260200280828437600081840152601f19601f820116905080830192505050505050919291929080604001906002806020026040519081016040528092919082600260200280828437600081840152601f19601f820116905080830192505050505050919291929080604001906002806020026040519081016040528092919082600260200280828437600081840152601f19601f8201169050808301925050505050509192919290505050612112565b604051808215151515815260200191505060405180910390f35b600060016000837bffffffffffffffffffffffffffffffffffffffffffffffffffffffff19167bffffffffffffffffffffffffffffffffffffffffffffffffffffffff1916815260200190815260200160002060009054906101000a900460ff169050919050565b606060108054600181600116156101000203166002900480601f01602080910402602001604051908101604052809291908181526020018280546001816001161561010002031660029004801561143c5780601f106114115761010080835404028352916020019161143c565b820191906000526020600020905b81548152906001019060200180831161141f57829003601f168201915b5050505050905090565b6000611451826124cb565b15156114c5576040517f08c379a00000000000000000000000000000000000000000000000000000000081526004018080602001828103825260148152602001807f7468697320746f6b656e204e4f5420657869737400000000000000000000000081525060200191505060405180910390fd5b6003600083815260200190815260200160002060009054906101000a900473ffffffffffffffffffffffffffffffffffffffff169050919050565b600061150b82611a69565b90508073ffffffffffffffffffffffffffffffffffffffff168373ffffffffffffffffffffffffffffffffffffffff16141515156115b1576040517f08c379a000000000000000000000000000000000000000000000000000000000815260040180806020018281038252601a8152602001807f5468697320697320746865206f776e6572206f6620746f6b656e00000000000081525060200191505060405180910390fd5b8073ffffffffffffffffffffffffffffffffffffffff163373ffffffffffffffffffffffffffffffffffffffff1614806115f157506115f08133612013565b5b1515611648576040517f08c379a0000000000000000000000000000000000000000000000000000000008152600401808060200182810382526050815260200180614d006050913960600191505060405180910390fd5b826003600084815260200190815260200160002060006101000a81548173ffffffffffffffffffffffffffffffffffffffff021916908373ffffffffffffffffffffffffffffffffffffffff160217905550818373ffffffffffffffffffffffffffffffffffffffff168273ffffffffffffffffffffffffffffffffffffffff167f8c5be1e5ebec7d5bd14f71427d1e84f3dd0314c0f7b2291e5b200ac8c7c3b92560405160405180910390a4505050565b6000600190509c9b505050505050505050505050565b611718611bc9565b151561176f576040517f08c379a0000000000000000000000000000000000000000000000000000000008152600401808060200182810382526021815260200180614d726021913960400191505060405180910390fd5b80600060146101000a81548160ff02191690831515021790555050565b6000600980549050905090565b6117a3338261253d565b15156117ae57600080fd5b6117b9838383612633565b505050565b6117fd828260006040519080825280601f01601f1916602001820160405280156117f75781602001600182028038833980820191505090505b50611a0b565b5050565b600061180c83611b50565b8210151561181957600080fd5b600760008473ffffffffffffffffffffffffffffffffffffffff1673ffffffffffffffffffffffffffffffffffffffff1681526020019081526020016000208281548110151561186557fe5b9060005260206000200154905092915050565b611880614989565b60408051908101604052808381526020018473ffffffffffffffffffffffffffffffffffffffff168152509050601481908060018154018082558091505090600182039060005260206000209060020201600090919290919091506000820151816000015560208201518160010160006101000a81548173ffffffffffffffffffffffffffffffffffffffff021916908373ffffffffffffffffffffffffffffffffffffffff16021790555050505060008383604051602001808373ffffffffffffffffffffffffffffffffffffffff1673ffffffffffffffffffffffffffffffffffffffff166c010000000000000000000000000281526014018281526020019250505060405160208183030381529060405280519060200120905081601560008381526020019081526020016000206000820151816000015560208201518160010160006101000a81548173ffffffffffffffffffffffffffffffffffffffff021916908373ffffffffffffffffffffffffffffffffffffffff16021790555090505050505050565b505050565b611a2c8383836020604051908101604052806000815250611dfe565b505050565b6000611a3b61178c565b82101515611a4857600080fd5b600982815481101515611a5757fe5b90600052602060002001549050919050565b6000806002600084815260200190815260200160002060009054906101000a900473ffffffffffffffffffffffffffffffffffffffff169050600073ffffffffffffffffffffffffffffffffffffffff168173ffffffffffffffffffffffffffffffffffffffff1614151515611b47576040517f08c379a000000000000000000000000000000000000000000000000000000000815260040180806020018281038252600f8152602001807f6e6f742076616c6964206f776e6572000000000000000000000000000000000081525060200191505060405180910390fd5b80915050919050565b6000611b99600460008473ffffffffffffffffffffffffffffffffffffffff1673ffffffffffffffffffffffffffffffffffffffff168152602001908152602001600020612657565b9050919050565b60008060009054906101000a900473ffffffffffffffffffffffffffffffffffffffff16905090565b60008060009054906101000a900473ffffffffffffffffffffffffffffffffffffffff1673ffffffffffffffffffffffffffffffffffffffff163373ffffffffffffffffffffffffffffffffffffffff1614905090565b606060118054600181600116156101000203166002900480601f016020809104026020016040519081016040528092919081815260200182805460018160011615610100020316600290048015611cb85780601f10611c8d57610100808354040283529160200191611cb8565b820191906000526020600020905b815481529060010190602001808311611c9b57829003601f168201915b5050505050905090565b3373ffffffffffffffffffffffffffffffffffffffff168273ffffffffffffffffffffffffffffffffffffffff1614151515611cfd57600080fd5b80600560003373ffffffffffffffffffffffffffffffffffffffff1673ffffffffffffffffffffffffffffffffffffffff16815260200190815260200160002060008473ffffffffffffffffffffffffffffffffffffffff1673ffffffffffffffffffffffffffffffffffffffff16815260200190815260200160002060006101000a81548160ff0219169083151502179055508173ffffffffffffffffffffffffffffffffffffffff163373ffffffffffffffffffffffffffffffffffffffff167f17307eab39ab6107e8899845ad3d59bd9653f200f220920489ca2b5937696c3183604051808215151515815260200191505060405180910390a35050565b611e09848484611799565b611e1584848484612665565b1515611e2057600080fd5b50505050565b6060611e31826124cb565b1515611e3c57600080fd5b601360008381526020019081526020016000208054600181600116156101000203166002900480601f016020809104026020016040519081016040528092919081815260200182805460018160011615610100020316600290048015611ee35780601f10611eb857610100808354040283529160200191611ee3565b820191906000526020600020905b815481529060010190602001808311611ec657829003601f168201915b50505050509050919050565b6000611ef9611bc9565b1515611f50576040517f08c379a0000000000000000000000000000000000000000000000000000000008152600401808060200182810382526021815260200180614d726021913960400191505060405180910390fd5b600073ffffffffffffffffffffffffffffffffffffffff168473ffffffffffffffffffffffffffffffffffffffff1614151515611ff5576040517f08c379a00000000000000000000000000000000000000000000000000000000081526004018080602001828103825260188152602001807f6d696e7420746f20746865207a65726f2061646472657373000000000000000081525060200191505060405180910390fd5b611fff8484612888565b612008836128a9565b600190509392505050565b6000600560008473ffffffffffffffffffffffffffffffffffffffff1673ffffffffffffffffffffffffffffffffffffffff16815260200190815260200160002060008373ffffffffffffffffffffffffffffffffffffffff1673ffffffffffffffffffffffffffffffffffffffff16815260200190815260200160002060009054906101000a900460ff16905092915050565b6120af611bc9565b1515612106576040517f08c379a0000000000000000000000000000000000000000000000000000000008152600401808060200182810382526021815260200180614d726021913960400191505060405180910390fd5b61210f816129e5565b50565b600061211c6149b9565b60408051908101604052808c600060028110151561213657fe5b602002015181526020018c600160028110151561214f57fe5b6020020151815250816000018190525060408051908101604052808b600060028110151561217957fe5b602002015181526020018b600160028110151561219257fe5b60200201518152508160200181905250604080519081016040528060408051908101604052808c60006002811015156121c757fe5b602002015160006002811015156121da57fe5b602002015181526020018c60006002811015156121f357fe5b6020020151600160028110151561220657fe5b6020020151815250815260200160408051908101604052808c600160028110151561222d57fe5b6020020151600060028110151561224057fe5b602002015181526020018c600160028110151561225957fe5b6020020151600160028110151561226c57fe5b60200201518152508152508160400181905250604080519081016040528089600060028110151561229957fe5b602002015181526020018960016002811015156122b257fe5b6020020151815250816060018190525060408051908101604052808860006002811015156122dc57fe5b602002015181526020018860016002811015156122f557fe5b60200201518152508160800181905250604080519081016040528087600060028110151561231f57fe5b6020020151815260200187600160028110151561233857fe5b60200201518152508160a00181905250604080519081016040528086600060028110151561236257fe5b6020020151815260200186600160028110151561237b57fe5b60200201518152508160e0018190525060408051908101604052808560006002811015156123a557fe5b602002015181526020018560016002811015156123be57fe5b60200201518152508160c00181905250606060026040519080825280602002602001820160405280156124005781602001602082028038833980820191505090505b50905060008090505b600281101561244e57848160028110151561242057fe5b6020020151828281518110151561243357fe5b90602001906020020181815250508080600101915050612409565b50600061245b8284612b2b565b14156124b7577f3f3cfdb26fb5f9f1786ab4f1a1f9cd4c0b5e726cbdfc26e495261731aad44e39604051808060200182810382526022815260200180614d506022913960400191505060405180910390a16001925050506124be565b6000925050505b9998505050505050505050565b6000806002600084815260200190815260200160002060009054906101000a900473ffffffffffffffffffffffffffffffffffffffff169050600073ffffffffffffffffffffffffffffffffffffffff168173ffffffffffffffffffffffffffffffffffffffff161415915050919050565b6000612548826124cb565b151561259f576040517f08c379a000000000000000000000000000000000000000000000000000000000815260040180806020018281038252602c815260200180614cd4602c913960400191505060405180910390fd5b60006125aa83611a69565b90508073ffffffffffffffffffffffffffffffffffffffff168473ffffffffffffffffffffffffffffffffffffffff16148061261957508373ffffffffffffffffffffffffffffffffffffffff1661260184611446565b73ffffffffffffffffffffffffffffffffffffffff16145b8061262a57506126298185612013565b5b91505092915050565b61263e838383612d6b565b6126488382612fe7565b612652828261318b565b505050565b600081600001549050919050565b60006126868473ffffffffffffffffffffffffffffffffffffffff16613252565b15156126955760019050612880565b60008473ffffffffffffffffffffffffffffffffffffffff1663150b7a02338887876040518563ffffffff167c0100000000000000000000000000000000000000000000000000000000028152600401808573ffffffffffffffffffffffffffffffffffffffff1673ffffffffffffffffffffffffffffffffffffffff1681526020018473ffffffffffffffffffffffffffffffffffffffff1673ffffffffffffffffffffffffffffffffffffffff16815260200183815260200180602001828103825283818151815260200191508051906020019080838360005b8381101561278c578082015181840152602081019050612771565b50505050905090810190601f1680156127b95780820380516001836020036101000a031916815260200191505b5095505050505050602060405180830381600087803b1580156127db57600080fd5b505af11580156127ef573d6000803e3d6000fd5b505050506040513d602081101561280557600080fd5b8101908080519060200190929190505050905063150b7a027c0100000000000000000000000000000000000000000000000000000000027bffffffffffffffffffffffffffffffffffffffffffffffffffffffff1916817bffffffffffffffffffffffffffffffffffffffffffffffffffffffff1916149150505b949350505050565b6128928282613265565b61289c828261318b565b6128a581613481565b5050565b6128b2816124cb565b1515612909576040517f08c379a000000000000000000000000000000000000000000000000000000000815260040180806020018281038252602c815260200180614d93602c913960400191505060405180910390fd5b60606129b760128054600181600116156101000203166002900480601f0160208091040260200160405190810160405280929190818152602001828054600181600116156101000203166002900480156129a45780601f10612979576101008083540402835291602001916129a4565b820191906000526020600020905b81548152906001019060200180831161298757829003601f168201915b50505050506129b2846134cd565b613626565b9050806013600084815260200190815260200160002090805190602001906129e0929190614a2f565b505050565b600073ffffffffffffffffffffffffffffffffffffffff168173ffffffffffffffffffffffffffffffffffffffff1614151515612a6d576040517f08c379a0000000000000000000000000000000000000000000000000000000008152600401808060200182810382526026815260200180614cae6026913960400191505060405180910390fd5b8073ffffffffffffffffffffffffffffffffffffffff166000809054906101000a900473ffffffffffffffffffffffffffffffffffffffff1673ffffffffffffffffffffffffffffffffffffffff167f8be0079c531659141344cd1fd0a4f28419497f9722a3daafe3b4186f6b6457e060405160405180910390a3806000806101000a81548173ffffffffffffffffffffffffffffffffffffffff021916908373ffffffffffffffffffffffffffffffffffffffff16021790555050565b6000612b35614aaf565b612b3d61366d565b90508060e00151516001855101141515612b5657600080fd5b612b5e614b1f565b6040805190810160405280600081526020016000815250905060008090505b8551811015612bdd57612bce82612bc98560e0015160018501815181101515612ba257fe5b906020019060200201518985815181101515612bba57fe5b90602001906020020151613cad565b613d49565b91508080600101915050612b7d565b50612c04818360e001516000815181101515612bf557fe5b90602001906020020151613d49565b9050612c2d84600001518360000151612c208760200151613e06565b612c28613ea2565b613f6c565b1515612c3e57600192505050612d65565b612c6582602001518560400151612c588760600151613e06565b612c60613ea2565b613f6c565b1515612c7657600292505050612d65565b612c9d84608001518360400151612c908760a00151613e06565b612c98613ea2565b613f6c565b1515612cae57600392505050612d65565b612cfa8460c001518360600151612cde612cd985612cd48a600001518b60800151613d49565b613d49565b613e06565b8560a00151612cf08760800151613e06565b8960400151614078565b1515612d0b57600492505050612d65565b612d4d612d1c828660000151613d49565b8560400151612d2e8760e00151613e06565b8560c00151612d408960800151613e06565b612d48613ea2565b614078565b1515612d5e57600592505050612d65565b6000925050505b92915050565b8273ffffffffffffffffffffffffffffffffffffffff16612d8b82611a69565b73ffffffffffffffffffffffffffffffffffffffff16141515612df9576040517f08c379a0000000000000000000000000000000000000000000000000000000008152600401808060200182810382526030815260200180614c7e6030913960400191505060405180910390fd5b600073ffffffffffffffffffffffffffffffffffffffff168273ffffffffffffffffffffffffffffffffffffffff1614151515612e9e576040517f08c379a00000000000000000000000000000000000000000000000000000000081526004018080602001828103825260118152602001807f4e6f742076616c6964206164647265737300000000000000000000000000000081525060200191505060405180910390fd5b612ea7816141c0565b612eee600460008573ffffffffffffffffffffffffffffffffffffffff1673ffffffffffffffffffffffffffffffffffffffff168152602001908152602001600020614280565b612f35600460008473ffffffffffffffffffffffffffffffffffffffff1673ffffffffffffffffffffffffffffffffffffffff1681526020019081526020016000206142a3565b816002600083815260200190815260200160002060006101000a81548173ffffffffffffffffffffffffffffffffffffffff021916908373ffffffffffffffffffffffffffffffffffffffff160217905550808273ffffffffffffffffffffffffffffffffffffffff168473ffffffffffffffffffffffffffffffffffffffff167fddf252ad1be2c89b69c2b068fc378daa952ba7f163c4a11628f55a4df523b3ef60405160405180910390a4505050565b600061303f6001600760008673ffffffffffffffffffffffffffffffffffffffff1673ffffffffffffffffffffffffffffffffffffffff168152602001908152602001600020805490506142b990919063ffffffff16565b90506000600860008481526020019081526020016000205490508181141515613132576000600760008673ffffffffffffffffffffffffffffffffffffffff1673ffffffffffffffffffffffffffffffffffffffff168152602001908152602001600020838154811015156130b057fe5b9060005260206000200154905080600760008773ffffffffffffffffffffffffffffffffffffffff1673ffffffffffffffffffffffffffffffffffffffff1681526020019081526020016000208381548110151561310a57fe5b9060005260206000200181905550816008600083815260200190815260200160002081905550505b600760008573ffffffffffffffffffffffffffffffffffffffff1673ffffffffffffffffffffffffffffffffffffffff1681526020019081526020016000208054809190600190036131849190614b39565b5050505050565b600760008373ffffffffffffffffffffffffffffffffffffffff1673ffffffffffffffffffffffffffffffffffffffff168152602001908152602001600020805490506008600083815260200190815260200160002081905550600760008373ffffffffffffffffffffffffffffffffffffffff1673ffffffffffffffffffffffffffffffffffffffff1681526020019081526020016000208190806001815401808255809150509060018203906000526020600020016000909192909190915055505050565b600080823b905060008111915050919050565b600073ffffffffffffffffffffffffffffffffffffffff168273ffffffffffffffffffffffffffffffffffffffff161415151561330a576040517f08c379a00000000000000000000000000000000000000000000000000000000081526004018080602001828103825260208152602001807f4552433732313a206d696e7420746f20746865207a65726f206164647265737381525060200191505060405180910390fd5b613313816124cb565b151515613388576040517f08c379a000000000000000000000000000000000000000000000000000000000815260040180806020018281038252601c8152602001807f676976656e20746f6b656e496420616c7265616479206d696e7465640000000081525060200191505060405180910390fd5b816002600083815260200190815260200160002060006101000a81548173ffffffffffffffffffffffffffffffffffffffff021916908373ffffffffffffffffffffffffffffffffffffffff160217905550613421600460008473ffffffffffffffffffffffffffffffffffffffff1673ffffffffffffffffffffffffffffffffffffffff1681526020019081526020016000206142a3565b808273ffffffffffffffffffffffffffffffffffffffff16600073ffffffffffffffffffffffffffffffffffffffff167fddf252ad1be2c89b69c2b068fc378daa952ba7f163c4a11628f55a4df523b3ef60405160405180910390a45050565b600980549050600a600083815260200190815260200160002081905550600981908060018154018082558091505090600182039060005260206000200160009091929091909150555050565b60606000821415613515576040805190810160405280600181526020017f30000000000000000000000000000000000000000000000000000000000000008152509050613621565b600082905060005b600082141515613543578080600101915050600a8281151561353b57fe5b04915061351d565b6060816040519080825280601f01601f1916602001820160405280156135785781602001600182028038833980820191505090505b50905060006001830390505b60008614151561361957600a8681151561359a57fe5b066030017f0100000000000000000000000000000000000000000000000000000000000000028282806001900393508151811015156135d557fe5b9060200101907effffffffffffffffffffffffffffffffffffffffffffffffffffffffffffff1916908160001a905350600a8681151561361157fe5b049550613584565b819450505050505b919050565b606061366583836020604051908101604052806000815250602060405190810160405280600081525060206040519081016040528060008152506142db565b905092915050565b613675614aaf565b604080519081016040528060408051908101604052807f24e3bde81fa3d581d3b1e75d1c69bdf770357d7c682b0bfd10679132e5e64e0e81526020017f19438ae221b888074a673a1219fb783e479c5875420439fc621eb53d286f5af0815250815260200160408051908101604052807f12091928a6b07e7be47fc94e8728659c01e70da14a0c2014630fbe5daa539f1e81526020017f1b42376f0a1522bd2e149d377fb6a3dc7e6a2c131947fc2d319bc45f6f171799815250815250816000018190525060408051908101604052807ec1413bb763379947d788e815dbfaba6a1fccbbc76d4cb65f99a0c4639bf51681526020017f16bb3e6f630503a81213a60431e585fb6f6dc451b4be120a3d13d9ef8db8320d8152508160200181905250604080519081016040528060408051908101604052807f0e60e51c23644a1b18a875b4b558f38c20819e1ca3a2fd4f1fb2ea8bdffe1a7381526020017f0d692805b2eb301c05160d70084247ddab4f5a71991891ff2247b6030723a93e815250815260200160408051908101604052807f036972d3d45bb5e4c343758b7eb1d5ceccfef8e90728b743c3d6a6106718953381526020017f11200df883698c74e93c02296917d7b6cca26bd8630441425d1d696651c9fdfa8152508152508160400181905250604080519081016040528060408051908101604052807f1f2784ef360a2bbb5a6e7947a561d3cb0a77e8275cb53a9e9e75e3a65e1e290281526020017f0894a3b2ccc5ed25911983a52ddf69c46a1fff45838e0931afec4c2c4fd9127b815250815260200160408051908101604052807f2925e3f727fb006de41d41a2b93ea9f3bf12d7a76c0e824f8813ac2755d6346d81526020017f0e7bac654b90df21c3fe2e176166a93283839cbcdc49f0199da374152de23e46815250815250816060018190525060408051908101604052807f1dba15b749e608fb2f3737d7b228eee31f65d1af2c4b372d55ac7ce2576f772281526020017f05adb1d4394aa466bf27acf1534b8b67a188533756b68eb3ac76a057cb217f4c8152508160800181905250604080519081016040528060408051908101604052807f1ad179ecebda5f2a949269d3afd2d2d74983deef263ebb37ff4ff1121ffc0cbe81526020017f1c6c05606b4546986ddb90b8e062198710ea065e96de97def112babb0288cf9e815250815260200160408051908101604052807f1368cb58ad7e47fe613f37f47e47292ecbc2385cdd23f4d29e14b51110c717a681526020017f1e04d7c3a8e9647b6d33f5f6445e47dd71d887efcdc6d3f3cff30a58ede936ef8152508152508160a00181905250604080519081016040528060408051908101604052807f01f82813e048f928665badb808c19483a4e5c0c3c0c0892f30a1443e40cc92a281526020017f2961de296d61d7db5d5f44bef8fdc2b87c2e0e2cb707c36777a12228b19ffc82815250815260200160408051908101604052807f2b16f03a25383eef65f61c55a30700c21f04a27a727677d0fcc6dc7416bc39df81526020017f304881a69789a4d21538c3cd5829fae3ad2c7146373aedfab12b6bfa1821cedd8152508152508160c001819052506003604051908082528060200260200182016040528015613b4257816020015b613b2f614b65565b815260200190600190039081613b275790505b508160e0018190525060408051908101604052807f1f20b62909cc1a416529eea9b393258497cf48186280cebf0f3749b9341f9d1c81526020017f0d4127bce3596579c73661b3448724468a9e9aa28a9590ccb45e63ea29fd79f98152508160e001516000815181101515613bb357fe5b9060200190602002018190525060408051908101604052807f28a7cab67ac7062ba5a607e3490b043ae0377378d28ebecae3e1e1dab5378d4681526020017f17b474dff7255a4306b9eacb19dd515099c893768f4bb5663e529da2b874b7228152508160e001516001815181101515613c2857fe5b9060200190602002018190525060408051908101604052807f25ee09c6232190d6ec7bd57981cc09de549e539cfe8dc54b47335ca4213cc23c81526020017f1ce39706f9c7f5e6b0aa4f3597b24314092e4f31cbfed5adc710a6b44876596b8152508160e001516002815181101515613c9d57fe5b9060200190602002018190525090565b613cb5614b1f565b613cbd614b7f565b8360000151816000600381101515613cd157fe5b6020020181815250508360200151816001600381101515613cee57fe5b60200201818152505082816002600381101515613d0757fe5b6020020181815250506000606083608084600060076107d05a03f190508060008114613d3257613d34565bfe5b50801515613d4157600080fd5b505092915050565b613d51614b1f565b613d59614ba2565b8360000151816000600481101515613d6d57fe5b6020020181815250508360200151816001600481101515613d8a57fe5b6020020181815250508260000151816002600481101515613da757fe5b6020020181815250508260200151816003600481101515613dc457fe5b602002018181525050600060608360c084600060066107d05a03f190508060008114613def57613df1565bfe5b50801515613dfe57600080fd5b505092915050565b613e0e614b1f565b60007f30644e72e131a029b85045b68181585d97816a916871ca8d3c208c16d87cfd47905060008360000151148015613e4b575060008360200151145b15613e6f576040805190810160405280600081526020016000815250915050613e9d565b604080519081016040528084600001518152602001828560200151811515613e9357fe5b0683038152509150505b919050565b613eaa614bc5565b604080519081016040528060408051908101604052807f198e9393920d483a7260bfb731fb5d25f1aa493335a9e71297e485b7aef312c281526020017f1800deef121f1e76426a00665e5c4479674322d4f75edadd46debd5cd992f6ed815250815260200160408051908101604052807f090689d0585ff075ec9e99ad690c3395bc4b313370b38ef355acdadcd122975b81526020017f12c85ea5db8c6deb4aab71808dcb408fe3d1e7690c43d37b4ce6cc0166fa7daa815250815250905090565b600060606002604051908082528060200260200182016040528015613fab57816020015b613f98614b65565b815260200190600190039081613f905790505b50905060606002604051908082528060200260200182016040528015613feb57816020015b613fd8614bec565b815260200190600190039081613fd05790505b50905086826000815181101515613ffe57fe5b906020019060200201819052508482600181518110151561401b57fe5b906020019060200201819052508581600081518110151561403857fe5b906020019060200201819052508381600181518110151561405557fe5b9060200190602002018190525061406c82826146f6565b92505050949350505050565b6000606060036040519080825280602002602001820160405280156140b757816020015b6140a4614b65565b81526020019060019003908161409c5790505b509050606060036040519080825280602002602001820160405280156140f757816020015b6140e4614bec565b8152602001906001900390816140dc5790505b5090508882600081518110151561410a57fe5b906020019060200201819052508682600181518110151561412757fe5b906020019060200201819052508482600281518110151561414457fe5b906020019060200201819052508781600081518110151561416157fe5b906020019060200201819052508581600181518110151561417e57fe5b906020019060200201819052508381600281518110151561419b57fe5b906020019060200201819052506141b282826146f6565b925050509695505050505050565b600073ffffffffffffffffffffffffffffffffffffffff166003600083815260200190815260200160002060009054906101000a900473ffffffffffffffffffffffffffffffffffffffff1673ffffffffffffffffffffffffffffffffffffffff1614151561427d5760006003600083815260200190815260200160002060006101000a81548173ffffffffffffffffffffffffffffffffffffffff021916908373ffffffffffffffffffffffffffffffffffffffff1602179055505b50565b614298600182600001546142b990919063ffffffff16565b816000018190555050565b6001816000016000828254019250508190555050565b60008282111515156142ca57600080fd5b600082840390508091505092915050565b6060808690506060869050606086905060608690506060869050606081518351855187518951010101016040519080825280601f01601f1916602001820160405280156143375781602001600182028038833980820191505090505b509050606081905060008090506000809050600090505b885181101561440157888181518110151561436557fe5b9060200101517f010000000000000000000000000000000000000000000000000000000000000090047f01000000000000000000000000000000000000000000000000000000000000000283838060010194508151811015156143c457fe5b9060200101907effffffffffffffffffffffffffffffffffffffffffffffffffffffffffffff1916908160001a905350808060010191505061434e565b600090505b87518110156144b957878181518110151561441d57fe5b9060200101517f010000000000000000000000000000000000000000000000000000000000000090047f010000000000000000000000000000000000000000000000000000000000000002838380600101945081518110151561447c57fe5b9060200101907effffffffffffffffffffffffffffffffffffffffffffffffffffffffffffff1916908160001a9053508080600101915050614406565b600090505b86518110156145715786818151811015156144d557fe5b9060200101517f010000000000000000000000000000000000000000000000000000000000000090047f010000000000000000000000000000000000000000000000000000000000000002838380600101945081518110151561453457fe5b9060200101907effffffffffffffffffffffffffffffffffffffffffffffffffffffffffffff1916908160001a90535080806001019150506144be565b600090505b855181101561462957858181518110151561458d57fe5b9060200101517f010000000000000000000000000000000000000000000000000000000000000090047f01000000000000000000000000000000000000000000000000000000000000000283838060010194508151811015156145ec57fe5b9060200101907effffffffffffffffffffffffffffffffffffffffffffffffffffffffffffff1916908160001a9053508080600101915050614576565b600090505b84518110156146e157848181518110151561464557fe5b9060200101517f010000000000000000000000000000000000000000000000000000000000000090047f01000000000000000000000000000000000000000000000000000000000000000283838060010194508151811015156146a457fe5b9060200101907effffffffffffffffffffffffffffffffffffffffffffffffffffffffffffff1916908160001a905350808060010191505061462e565b82995050505050505050505095945050505050565b60008151835114151561470857600080fd5b60008351905060006006820290506060816040519080825280602002602001820160405280156147475781602001602082028038833980820191505090505b50905060008090505b8381101561492557868181518110151561476657fe5b9060200190602002015160000151826000600684020181518110151561478857fe5b906020019060200201818152505086818151811015156147a457fe5b906020019060200201516020015182600160068402018151811015156147c657fe5b906020019060200201818152505085818151811015156147e257fe5b906020019060200201516000015160006002811015156147fe57fe5b6020020151826002600684020181518110151561481757fe5b9060200190602002018181525050858181518110151561483357fe5b9060200190602002015160000151600160028110151561484f57fe5b6020020151826003600684020181518110151561486857fe5b9060200190602002018181525050858181518110151561488457fe5b906020019060200201516020015160006002811015156148a057fe5b602002015182600460068402018151811015156148b957fe5b906020019060200201818152505085818151811015156148d557fe5b906020019060200201516020015160016002811015156148f157fe5b6020020151826005600684020181518110151561490a57fe5b90602001906020020181815250508080600101915050614750565b5061492e614c13565b60006020826020860260208601600060086107d05a03f19050806000811461495557614957565bfe5b5080151561496457600080fd5b600082600060018110151561497557fe5b602002015114159550505050505092915050565b604080519081016040528060008152602001600073ffffffffffffffffffffffffffffffffffffffff1681525090565b610240604051908101604052806149ce614b65565b81526020016149db614b65565b81526020016149e8614bec565b81526020016149f5614b65565b8152602001614a02614b65565b8152602001614a0f614b65565b8152602001614a1c614b65565b8152602001614a29614b65565b81525090565b828054600181600116156101000203166002900490600052602060002090601f016020900481019282601f10614a7057805160ff1916838001178555614a9e565b82800160010185558215614a9e579182015b82811115614a9d578251825591602001919060010190614a82565b5b509050614aab9190614c36565b5090565b61032060405190810160405280614ac4614bec565b8152602001614ad1614b65565b8152602001614ade614bec565b8152602001614aeb614bec565b8152602001614af8614b65565b8152602001614b05614bec565b8152602001614b12614bec565b8152602001606081525090565b604080519081016040528060008152602001600081525090565b815481835581811115614b6057818360005260206000209182019101614b5f9190614c36565b5b505050565b604080519081016040528060008152602001600081525090565b606060405190810160405280600390602082028038833980820191505090505090565b608060405190810160405280600490602082028038833980820191505090505090565b608060405190810160405280614bd9614c5b565b8152602001614be6614c5b565b81525090565b608060405190810160405280614c00614c5b565b8152602001614c0d614c5b565b81525090565b602060405190810160405280600190602082028038833980820191505090505090565b614c5891905b80821115614c54576000816000905550600101614c3c565b5090565b90565b604080519081016040528060029060208202803883398082019150509050509056fe66726f6d2061646472657373206973204e4f5420746865206f776e6572206f662074686520676976656e20746f6b656e4f776e61626c653a206e6577206f776e657220697320746865207a65726f20616464726573734552433732313a206f70657261746f7220717565727920666f72206e6f6e6578697374656e7420746f6b656e73656e646572206973206e65697468657220746865206f776e6572206f662074686520636f6e7472616374206e6f722076616c7565206973417070726f766564466f72416c6c282920697320747275655472616e73616374696f6e207375636365737366756c6c792076657269666965642e746869732061646472657373206973206e6f7420666f7220746865206f776e65724552433732314d657461646174613a2055524920736574206f66206e6f6e6578697374656e7420746f6b656ea165627a7a7230582063cfe5e9272a09d833ce0d2677abf1a5bea7be9188ec131039c5ddfc21c5b636002968747470733a2f2f73332d75732d776573742d322e616d617a6f6e6177732e636f6d2f756461636974792d626c6f636b636861696e2f63617073746f6e652f",
  "source": "pragma solidity ^0.5.0;\n\n// import 'contracts/SquareVerifier.sol';\n// DONE \nimport \"contracts/ERC721Mintable.sol\";\nimport \"contracts/SquareVerifier.sol\";\n\n\n\n// TODO define another contract named SolnSquareVerifier that inherits from your ERC721Mintable class\n// DONE \ncontract SolnSquareVerifier is CustomERC721Token ,SquareVerifier  {\n\n// TODO define a contract call to the zokrates generated solidity contract <Verifier> or <renamedVerifier>\n// DONE \n    // SquareVerifier squareVerifier = new SquareVerifier();\n    // constructor(address verifierAddress, string memory name, string memory symbol) public \n    constructor(address verifierAddress) public \n    {\n        // var squareVerifier = SquareVerifier(verifierAddress);\n    }\n// constructor () public {\n//     // flightSuretyData = FlightSuretyData(flightSuretyDataAddress);\n\n// }\n\n// TODO define a solutions struct that can hold an index & an address\n// DONE \nstruct Solution{\n    uint256 tokenId; \n    address owner;\n}\n\n// TODO define an array of the above struct\n// DONE \nSolution[] solutionsArray;\n\n// TODO define a mapping to store unique solutions submitted\n// DONE \nmapping (bytes32=>Solution)  uniqueSolutions;\n\n\n// TODO Create an event to emit when a solution is added\n// DONE \n// event SolutionAdded(address owner );\n\n// TODO Create a function to add the solutions to the array and emit the event\nfunction addSolution(address _owner,uint256 _tokenId) public{\n    // to add the solutions to the array\n    // DONE \n    Solution memory solution;\n    solution = Solution({tokenId:_tokenId,owner:_owner});\n    solutionsArray.push(solution);\n    \n    //to creat unique key\n    // uint256 timecAall;\n    // timecAall =now;\n\n\n    bytes32 key = keccak256(abi.encodePacked(_owner, _tokenId));\n\n    uniqueSolutions[key]=solution;\n\n\n    //and emit the event\n    // DONE \n    // emit SolutionAdded( _owner );\n}\n\n    //deploy 10 tokens\n\n        // TODO Create a function to mint new NFT only after the solution has been verified\n    //  - make sure the solution is unique (has not been used before)\n        // DONE \n        function mintNFT(\n            uint[2] memory a,\n            uint[2] memory a_p,\n            uint[2][2] memory b,\n            uint[2] memory b_p,\n            uint[2] memory c,\n            uint[2] memory c_p,\n            uint[2] memory h,\n            uint[2] memory k,\n            uint[2] memory input\n            ,address owner, uint256 tokenId, string memory tokenURI) public returns (bool){\n\n            // bool result = super.verifyTx(a, a_p, b, b_p, c, c_p, h, k, input);\n            // require(result,\"incorrect proof\");\n\n            // addSolution(owner, tokenId);\n\n            // super.mint(owner, tokenId, tokenURI);\n            \n    //  - make sure you handle metadata as well as tokenSuplly\n\n    return true;\n}\n\n}\n// contract SquareVerifier {\n//     function verifyTx(\n//             uint[2] memory a,\n//             uint[2] memory a_p,\n//             uint[2][2] memory b,\n//             uint[2] memory b_p,\n//             uint[2] memory c,\n//             uint[2] memory c_p,\n//             uint[2] memory h,\n//             uint[2] memory k,\n//             uint[2] memory input\n//         ) public returns (bool r);\n// }\n\n\n\n\n\n\n\n\n\n\n\n\n\n\n\n\n\n\n\n\n\n\n\n\n\n\n\n\n\n\n\n\n\n\n\n\n\n\n\n\n\n\n\n",
  "sourcePath": "/Users/msharekh/Development/Blockchain-Capstone/eth-contracts/contracts/SolnSquareVerifier.sol",
  "compiler": {
    "name": "solc",
    "version": "0.5.2+commit.1df8f40c.Emscripten.clang"
  },
  "schemaVersion": "3.0.9",
  "updatedAt": "2019-05-15T13:42:52.006Z",
  "devdoc": {
    "methods": {
      "isApprovedForAll(address,address)": {
        "details": "Tells whether an operator is approved by a given owner",
        "params": {
          "operator": "operator address which you want to query the approval of",
          "owner": "owner address which you want to query the approval of"
        },
        "return": "bool whether the given operator is approved by the given owner"
      },
      "setApprovalForAll(address,bool)": {
        "details": "Sets or unsets the approval of a given operator An operator is allowed to transfer all tokens of the sender on their behalf",
        "params": {
          "approved": "representing the status of the approval to be set",
          "to": "operator address to set the approval"
        }
      },
      "supportsInterface(bytes4)": {
        "details": "implement supportsInterface(bytes4) using a lookup table"
      },
      "tokenByIndex(uint256)": {
        "details": "Gets the token ID at a given index of all the tokens in this contract Reverts if the index is greater or equal to the total number of tokens",
        "params": {
          "index": "uint256 representing the index to be accessed of the tokens list"
        },
        "return": "uint256 token ID at the given index of the tokens list"
      },
      "tokenOfOwnerByIndex(address,uint256)": {
        "details": "Gets the token ID at a given index of the tokens list of the requested owner",
        "params": {
          "index": "uint256 representing the index to be accessed of the requested tokens list",
          "owner": "address owning the tokens list to be accessed"
        },
        "return": "uint256 token ID at the given index of the tokens list owned by the requested address"
      },
      "totalSupply()": {
        "details": "Gets the total amount of tokens stored by the contract",
        "return": "uint256 representing the total amount of tokens"
      }
    }
  },
  "userdoc": {
    "methods": {}
  }
}